:100000000C94600B0C94880B0C94880B0C947F1947
:100010000C947F190C947F190C94880B0C94161B6C
:100020000C94880B0C94880B0C94880B0C94880B04
:100030000C94880B0C94880B0C94880B0C94880BF4
:100040000C9435190C94880B0C9403190C94DD183E
:100050000C94880B0C94880B0C94880B0C94880BD4
:100060000C94F7190C94880B084AD73B3BCE016ED1
:1000700084BCBFFDC12F3D6C74319ABD56833DDAFF
:100080003D00C77F11BED9E4BB4C3E916BAAAABE0E
:10009000000000803F0000000000240027002A002C
:1000A0000000000800020100000304070000000037
:1000B0000000000000000000000000000000000040
:1000C0000000000000000000000000000000000030
:1000D000010000000100010001000100000000001B
:1000E000000000000000000000000000010001000E
:1000F00001000100010000000100010001000100F9
:1001000001000000000000000100000001000000EC
:1001100001000000010000000000000000000000DD
:1001200000000000010001000100010001000100C9
:1001300001000100010000000100000000000000BB
:1001400001000100010001000000010000000100A9
:10015000010001000100000000000000010001009A
:100160000100010001000100010001000100010087
:100170000100010000000000010001000100010079
:10018000010000000000000000000000000000006E
:10019000000000000100010001000000000000005C
:1001A000000000000000000000000000000000004F
:1001B000010001000100000000000000000000003C
:1001C000000000000000000000000000010000002E
:1001D000010000000100000001000000000000001C
:1001E000000000000000000001000000010000000D
:1001F00000000000000000000000000000000000FF
:1002000000000000010001000100010001000000E9
:1002100000000000000000000000000000000000DE
:1002200001000000000000000000000000000000CD
:1002300000000000000000000000000001000100BC
:1002400001000100000000000000000000000000AC
:10025000000000000000000001000000000000009D
:10026000000000000000000000000000000000008E
:100270000000000001000100010001000100010078
:10028000010001000000000000000000000000006C
:10029000010001000000010000000000000000005B
:1002A000000000000000000000000000010001004C
:1002B0000100010001000100010000000000000039
:1002C000000000000000000001000100010001002A
:1002D000010001000100010000000000000000001A
:1002E000000000000100010001000100000000000A
:1002F00000000000000000000000000000000000FE
:1003000000000100010001000100010001000100E6
:1003100001000100000000000000000000000100DA
:1003200001000100010001000100010001000100C5
:1003300000000000000000000100010000000000BB
:1003400000000000000000000000000000000000AD
:100350000000000001000100010001000000010098
:10036000000000000000000000000000000000008D
:100370000000010001000100010001000100010076
:100380000000010001000000000000000100010069
:100390000100010000000100010001000100000057
:1003A0000000000000000000010001000100010049
:1003B0000000010001000100010001000000000038
:1003C000000000000100010000000000000000002B
:1003D000000000000000000000000000000000001D
:1003E000010000000100000000000000000000000B
:1003F00000000000000000000000000001000100FB
:1004000000000000000000000000000000000000EC
:1004100000000000000000000100010001000100D8
:1004200001000100000001000100010001000000C6
:1004300000000000010001000100010001000100B6
:1004400000000100010001000100010001000000A6
:100450000100010000000100000000000000000099
:10046000000000000000000000000000010001008A
:100470000100010001000000010001000100010075
:100480000100000000000000010001000100010067
:100490000100010001000000000000000000000059
:1004A0000000000001000100010001000100010046
:1004B000000000000000000000000000000000003C
:1004C0000100010001000000010000000000000028
:1004D000000000000000000000000000010001001A
:1004E000000001000000000000000000000000000B
:1004F00000000000000000000100010001000100F8
:1005000001000100010001000100000000000000E6
:1005100000000000010000000100000001000000D8
:1005200000000000000000000000000000000000CB
:1005300001000000010000000100000000000000B8
:1005400000000000000000000000000001000100A9
:100550000100010001000000000000000000000098
:100560000000000000000000010001000100010087
:10057000000000000000000000000000000000007B
:100580000000000001000100000000000000000069
:10059000000000000000000000000000000000005B
:1005A0000100010001000000000000000000000048
:1005B0000000000000000000000000000100010039
:1005C0000100010000000000000000000000000029
:1005D0000000000000000000010001000100010017
:1005E0000100010001000100000000000000000007
:1005F00000000000010000000100010001000100F6
:1006000001000000000000000000000000000000E9
:1006100001000100010001000100010001000100D2
:1006200000000100000000000000000001000100C7
:1006300001000100010001000000000000000000B6
:1006400000000000000000000100010001000100A6
:100650000100010001000100010000000000000095
:100660000000000001000000010000000000000088
:10067000000000000000000000000000000000007A
:100680000100010001000100010000000000000065
:100690000000000000000000000000000100010058
:1006A000000000000000000000000000000000004A
:1006B0000000000000000000010001000100010036
:1006C000000000000000000000000000000000002A
:1006D0000000000001000000010000000000000018
:1006E000000000000000000000000000000000000A
:1006F00001000100000001000000000000000000F7
:1007000000000000000000000000000001000100E7
:1007100001000000000000000000000000000000D8
:1007200000000000000000000100010001000000C6
:1007300000000000000000000000000000000000B9
:1007400000000000010000000000000000000000A8
:100750000000000000000000000000000000000099
:100760000100010000000000000000000000000087
:100770000000000000000000000000000100000078
:100780000000000000000000000000000000000069
:100790000000000000000000010000000000000058
:1007A0000000000000000000000000000000000049
:1007B0000000000001000100010001000100010033
:1007C0000100010001000000000000000000000026
:1007D0000100010001000100010001000000000013
:1007E0000000000000000000000000000100010007
:1007F00001000100010001000100000000000000F4
:1008000000000000000000000100010001000100E4
:1008100001000100000000000000000000000000D6
:1008200000000000010001000100010001000100C2
:1008300001000100010000000000000000000000B5
:1008400001000100010000000100000000000000A4
:100850000000000000000000000000000100010096
:100860000100010001000100010001000100010080
:100870000100000000000000010001000100010073
:100880000100000000000000000000000000000067
:100890000000000001000100010001000000010053
:1008A0000000000000000000000000000000000048
:1008B0000100010001000100000001000100010031
:1008C0000100000000000000000000000100000026
:1008D0000100010000000000000000000000000016
:1008E0000000000000000000010001000000000006
:1008F00000000000000000000000000000000000F8
:1009000000000000010000000100010001000100E2
:1009100000000000000000000000000000000000D7
:1009200001000000010001000100010000000100C1
:1009300001000100010000000000000001000100B2
:1009400001000100010001000100010000000000A1
:100950000000000000000000010001000100010093
:100960000100010000000000000000000000000085
:100970000000000001000100010001000100010071
:100980000000000000000000000000000000000067
:100990000100000001000100010001000000000052
:1009A0000000000000000000000000000100010045
:1009B0000100010001000100010001000100000030
:1009C0000000000000000000010000000100010024
:1009D0000100010000000000000000000000000015
:1009E0000000000001000100010001000100010001
:1009F00000000100000000000000000000000000F6
:100A000001000100000000000000000000000000E4
:100A100000000000000000000000000001000100D4
:100A200001000100000000000000000000000000C4
:100A300000000000000000000100000001000000B4
:100A400000000000000000000000000000000000A6
:100A50000000000001000100010001000100000091
:100A60000100010000000000000000000000000084
:100A70000100010001000000000000000000000073
:100A80000000000000000000000000000100010064
:100A90000100010001000100000000000000000052
:100AA0000000000000000000010000000000000045
:100AB0000000000000000000000000000000000036
:100AC0000000000001000100010001000100010020
:100AD0000000000000000000000000000000000016
:100AE0000100010001000100010000000000000001
:100AF00000000000000000000000000000000000F6
:100B000000000000000000000000000000000000E5
:100B100000000000000000000000000014000000C1
:100B2000280000003C0000005000000064000000AD
:100B3000780000008C000000000014001400140075
:100B4000280014003C00140050001400640014003D
:100B5000780014008C001400000028001400280005
:100B6000280028003C0028005000280064002800CD
:100B7000780028008C00280000003C0014003C0095
:100B800028003C003C003C0050003C0064003C005D
:100B900078003C008C003C00000050001400500025
:100BA000280050003C0050005000500064005000ED
:100BB000780050008C0050000000640014006400B5
:100BC000280064003C00640050006400640064007D
:100BD000780064008C006400000078001400780045
:100BE000280078003C00780050007800640078000D
:100BF000780078008C00780000008C0014008C00D5
:100C000028008C003C008C0050008C0064008C009C
:100C100078008C008C008C00DC00000001000800D3
:100C200000000000000000000000000000000000C4
:100C300000000000000000000500250035003D0018
:100C40003C003400350000000000000000000000FF
:100C5000000000000C000B00030004000C00130057
:100C60000E000D00050006000E001500000000003B
:100C7000120017002A002F0003003A0006003D0072
:100C80000000000000000000000000000F0006004F
:100C900004000B0013002F0037003E003C0033001F
:100CA00005003D000000000003000A0013000C00D6
:100CB0000300060009003E0035002E0037003E000C
:100CC00000000000270036003D003C0033002B00F0
:100CD00016000E00050004000B0013003F0000008A
:100CE0000D000C00040005000D00140000000000C1
:100CF00000000000000000000000000005001300DC
:100D00002B003D000000000000000000000000007B
:100D10000000000000000000040016002E003C004F
:100D200000000000000000000000000000000000C3
:100D300000000000220027000D003D0033001700D6
:100D40001300370000000000000000000000000059
:100D50002300270015003D000000000000000000F7
:100D6000000000000000000000000000350034001A
:100D70002C002D0035003C000000000000000000A9
:100D8000000000000000000022002700000000001A
:100D90000000000000000000000000000000000053
:100DA00000000000340035003D003C00340000002D
:100DB0000000000000000000000000000000000033
:100DC00006003B00000000000000000000000000E2
:100DD0000000000000000000000000000400060009
:100DE0000F0037003E003C0033000B000400000001
:100DF00000000000000000000C0005003D003C0069
:100E00003E000000000000000000000000000000A4
:100E10000000000013000B00040006000F00170084
:100E20003B003F0000000000000000000000000048
:100E3000030006001B001D00260036003D003C009C
:100E40003300000000000000000000000500230047
:100E500027003D000D000000000000000000000021
:100E60000000000000000000060003001B0014004A
:100E700015001E0036003D003C003300000000005D
:100E800000000000060004000B0033003C003E00A0
:100E9000370027001E001D00240000000000000095
:100EA000030006003E0000000000000000000000FB
:100EB0000000000000000000000000000B000E0019
:100EC0003E003B000B002300260000000000000055
:100ED00000000000000000001E00250024001B0090
:100EE0000B00040005000E0036003D003C003300FE
:100EF000000000000C000D00150014000C002C0078
:100F00002D00350034002C0000000000000000001F
:100F10001C001D0025002400350034002C002D008D
:100F200035003C0000000000000000000F0022001F
:100F30003F00000000000000000000000000000072
:100F40000000000000000000120017002A002F001F
:100F50000000000000000000000000000000000091
:100F6000000000000A0027003A0000000000000016
:100F70000000000000000000000000000000000071
:100F80000B00040005000E0016001D002D003400AB
:100F900035003D0035003600000000003F003C00F9
:100FA00033000B00040006000F0027002E002D0068
:100FB000240014000D0017003B0005003F00240032
:100FC00025000000000000000000000000000000FC
:100FD000000000000B000D0016001E00250023007D
:100FE00025002E0036003D003B000B0000000000F5
:100FF0000E00050004000B0033003C003D003600ED
:1010000000000000000000000000000003000500D8
:101010000E0036003D003B00030000000000000011
:1010200000000000000000000E000B003B003E002E
:101030002300260000000000000000000000000067
:1010400000000000060003003B001B001E00000023
:101050000000000000000000000000000000000090
:101060000E00050004000B0033003C003D0036007C
:1010700026002500000000000000000003003B00E7
:101080001B001E0006003E000000000000000000E3
:1010900000000000000000000400060005003D0004
:1010A0003C003E00000000000000000000000000C6
:1010B00000000000060036003D003C0033002B001D
:1010C0000000000000000000000000000000000020
:1010D00003003B0006001B003E0000000000000073
:1010E00000000000000000000000000003003B00C2
:1010F0003E000000000000000000000000000000B2
:1011000000000000000000003B0003003E0006005D
:1011100000000000000000000000000000000000CF
:10112000000000003A0002003D00080040000000FE
:1011300000000000000000000000000000000000AF
:10114000030006000F0037003E003B0032000A009B
:1011500003000000000000000000000003003B004E
:10116000030005000E0016001D001B00000000001B
:101170000000000000000000030006000F00370020
:101180003E003B0032000A00030036003F00000032
:10119000000000003B000300050016001D001B00BE
:1011A0003E00000000000000000000000000000001
:1011B0000F00060004000B0013002F0037003E0054
:1011C0003C003300000000000000000003000700A6
:1011D00005003D00000000000000000000000000CD
:1011E0000000000000000000030033003C003E004F
:1011F00037000700000000000000000000000000B1
:101200000000000003003D00070000000000000097
:1012100000000000000000000000000000000000CE
:1012200002003A0005004000080000000000000035
:1012300000000000000000000000000002003F006D
:101240003A0007000000000000000000000000005D
:10125000000000000000000003001D003D001D0014
:101260000700000000000000000000000000000077
:1012700000000000030007003B003F0007000000E3
:10128000000000000000000000000000000000005E
:10129000060004003C003E000700000000000000C3
:1012A00000000000000000000000000003003E00FD
:1012B0000000000007000000000000000000000027
:1012C00000000000000000001300050017000000EF
:1012D000000000000000000000000000000000000E
:1012E000000000003A003F00000000000000000085
:1012F00000000000000000000000000000000000EE
:1013000004001600000000000000000000000000C3
:101310000000000000000000000000002E0035006A
:1013200034002B0013000C000D0016002E003F00AF
:10133000000000000000000003003B003D003600FC
:101340002E00250023000000000000000000000027
:10135000000000001E00150014001B0033003C00BC
:101360003D0036000000000000000000000000000A
:101370001E001C00230033003C003E00060000005D
:101380000000000000000000000000002200270014
:1013900017000E000B00120032003B003E00370029
:1013A00000000000000000000E00050004003C00EA
:1013B0001B001E00000000000000000000000000F4
:1013C000000000001E00250025001B0013000C007B
:1013D0000D00160036003D003C0033000000000008
:1013E00004003C00240025002E003E000000000008
:1013F00000000000000000000000000015001400C4
:101400000C000D0015001D003D0000000000000054
:1014100000000000000000000E000D0005000600A6
:101420000E00160036003D003C00330000000000B6
:101430000000000003003B000E0023003E000000FF
:10144000000000000000000000000000000000009C
:1014500004003C003E00000000000000000000000E
:1014600000000000000000000000000013003B002E
:101470001B00140015001E003E00000000000000CC
:10148000000000000000000012003A001A001300E3
:1014900014001D003D001D00160017002000400034
:1014A00000000000140015001E0036003D003C0046
:1014B00033001B00140000000000000000000000CA
:1014C0003C000C000D0016001E002500240000004A
:1014D0000000000000000000000000003E000E00C0
:1014E0000D0014001C002500260000000000000074
:1014F00000000000000000000B0014003C0014007D
:101500000D000E00170000000000000000000000A9
:10151000000000000B0014003C0014000D000E0041
:1015200017000000000000000000000000000000A4
:1015300016000D000C0013001B002E0036003D00AD
:101540003C003300000000000000000013003300E6
:101550003C003D003600160036003F000000000051
:10156000000000000000000013003D001700000014
:10157000000000000000000000000000000000006B
:101580000000000013003B001D003F00170000009A
:10159000000000000000000000000000000000004B
:1015A00013003F0017003B00000000000000000097
:1015B0000000000000000000000000000B0013000D
:1015C0001C001D0016000E002E003D003B00000018
:1015D0000000000000000000130017003B003F0067
:1015E00000000000000000000000000000000000FB
:1015F00000000000050004001C0023002C003C003B
:101600003D0000000000000000000000000000009D
:1016100005003D0000000000000000000000000088
:1016200000000000000000000000000004000500B1
:101630001D0026002D003D003C00000000000000C1
:10164000000000000000000011000A000B001E0056
:101650001F00180000000000000000000000000053
:10166000000000000000000000000000000000007A
:10167000000000000000000000000000000000006A
:1016800000000000230026002900000000002500C3
:1016900028002B00040404040404040402020202CF
:1016A0000202030303030303010204081020408025
:1016B000010204081020010204081020BC1B3F2C6A
:1016C00011241FBECFEFD8E0DEBFCDBF11E0A0E0F8
:1016D000B1E0E6E0F5E602C005900D92AC34B1074A
:1016E000D9F724E0ACE4B1E001C01D92A035B20707
:1016F000E1F71BE0CFE5DBE004C02197FE010E948B
:101700007730CE35D107C9F70E944A1D0C94763246
:101710000C940000089508951F93CF93DF9311E078
:10172000180F2091E9031217A1F1C091EA03D0919B
:10173000EB03215070E060E061F08F3FF1F430E0A6
:1017400050E040E06FEF7FEF80E090E00E94D62D08
:10175000B901FE014091E5035091E603CF018C1BD6
:101760009D0B8417950798F44081469FC001479FC1
:10177000900D112490833196EDCF812F90E0982F1A
:1017800088270197622F70E00E944F30E2CF1093BC
:10179000E903DF91CF911F9108958F929F92AF92AD
:1017A000BF92CF92DF92EF92FF92CF932091E3030B
:1017B0003091E40382179307E8F54B01AA24BB2478
:1017C000C82DC52ED62EE72EFF24BC2DA42F209188
:1017D000E903222361F0829E40011124C92D2C9D32
:1017E00060011124BD2D249FF0011124AF2FE09141
:1017F000EF03E090EA03F090EB033091EC03E31386
:1018000023C09C01220F331F820F931F8E0D9F1D3B
:10181000E091EC03E80FF92FF11DC083E091ED0397
:10182000E80FF92FF11DB0832091EE03820F911D77
:10183000FC01A083CF91FF90EF90DF90CF90BF90FD
:10184000AF909F908F900895880F991F880F991FD0
:101850008E0D9F1D472F552766277727222349F096
:1018600030E0249F7001259FF00C349FF00C112470
:101870004F2DE80FF92FF11D4083CACF8091D3037C
:101880009091D403891B990B0895CF92DF92EF9228
:10189000FF92CF93DF93EC01072E000C880B990B7E
:1018A0000E94B92C6B017C0120E030E040E45FE352
:1018B0000E94182D20E030E048E452E40E94042FFA
:1018C0000E94762FC617D707D4F020E030E040EA18
:1018D0005FE3C701B6010E94182D20E030E048E424
:1018E00052E40E94042F20E030E040E85FE30E94D1
:1018F000692E0E94762F21E06C177D070CF420E002
:10190000822F90E0DF91CF91FF90EF90DF90CF900A
:1019100008958F929F92AF92BF92CF92DF92EF92F3
:10192000FF920F931F93CF93DF93FC0120813181AE
:10193000E0911202F091130201E010E02E173F0730
:101940000CF043C0D901AA0FBB1FE0911002F09127
:101950001102EA0FFB1FA080B1808901009510954C
:101960000170112720FD23C02CE93FEFEA016B0134
:101970007C014901840E951EB401C5010E94450CED
:10198000892BC1F48C0E9D1EB401C5010E94450C2B
:10199000892B49F5BE01680D791DC5010E94450CD2
:1019A00023E030E0892B41F40FEF1FEF0EC024E657
:1019B00030E0DCCF21E030E0F601808191810196BA
:1019C000821793079CF491838083C801DF91CF91A4
:1019D0001F910F91FF90EF90DF90CF90BF90AF904D
:1019E0009F908F90089522E030E0E6CF1182108220
:1019F000F701808191810196E6CFAF92BF92CF929D
:101A0000DF92EF92FF920F931F93CF93DF936C01BE
:101A10007B018B01040F151FEB015E01AE18BF089F
:101A2000C017D10759F06991D601ED91FC91019051
:101A3000F081E02DC6010995892B79F7C501DF9169
:101A4000CF911F910F91FF90EF90DF90CF90BF90BB
:101A5000AF900895FC01538D448D252F30E0842FE5
:101A600090E0821B930B541710F0CF9608950197C6
:101A70000895FC01918D828D981761F0A28DAE0FB3
:101A8000BF2FB11D5D968C91928D9F5F9F73928F3A
:101A900090E008958FEF9FEF0895FC01918D828D66
:101AA000981731F0828DE80FF11D858D90E0089533
:101AB0008FEF9FEF0895FC01918D228D892F90E08B
:101AC000805C9F4F821B91098F739927089583E64D
:101AD00092E00E945B0D21E0892B09F420E0822F27
:101AE000089580E090E0892B29F00E94670D811114
:101AF0000C9400000895FC01A48DA80FB92FB11D0E
:101B0000A35ABF4F2C91848D90E001968F73992733
:101B1000848FA689B7892C93A089B1898C91837011
:101B200080648C93938D848D981306C00288F3890A
:101B3000E02D80818F7D80830895EF92FF920F9337
:101B40001F93CF93DF93EC0181E0888F9B8D8C8D69
:101B500098131AC0E889F989808185FF15C09FB75D
:101B6000F894EE89FF896083E889F9898081837020
:101B7000806480839FBF81E090E0DF91CF911F91CF
:101B80000F91FF90EF900895F62E0B8D10E00F5FF0
:101B90001F4F0F731127E02E8C8D8E110CC00FB6C6
:101BA00007FCFACFE889F989808185FFF5CFCE015E
:101BB0000E947B0DF1CFEB8DEC0FFD2FF11DE35A51
:101BC000FF4FF0829FB7F8940B8FEA89FB898081E1
:101BD0008062CFCFCF93DF93EC01888D8823B9F05B
:101BE000AA89BB89E889F9898C9185FD03C0808128
:101BF00086FD0DC00FB607FCF7CF8C9185FFF2CFA5
:101C0000808185FFEDCFCE010E947B0DE9CFDF9172
:101C1000CF910895833081F028F4813099F082309B
:101C2000A9F008958730A9F08830C9F08430B1F464
:101C3000809180008F7D03C0809180008F7780939A
:101C40008000089584B58F7784BD089584B58F7D15
:101C5000FBCF8091B0008F778093B0000895809182
:101C6000B0008F7DF9CFCF93DF93282F30E0F901BB
:101C7000E056FF4F8491F901E855F94ED491F901EE
:101C8000EC56F94EC491CC23A1F081110E940A0EAA
:101C9000EC2FF0E0EE0FFF1FE058F94EA591B49144
:101CA000EC91ED2381E090E009F480E0DF91CF91A9
:101CB000089580E090E0FACF1F93CF93DF93282F11
:101CC00030E0F901E056FF4F8491F901E855F94EF3
:101CD000D491F901EC56F94EC491CC23A9F0162FFA
:101CE00081110E940A0EEC2FF0E0EE0FFF1FE65765
:101CF000F94EA591B4918FB7F894EC91111108C0E9
:101D0000D095DE23DC938FBFDF91CF911F91089593
:101D1000DE2BF8CFCF93DF9390E0FC01E855F94E2E
:101D200024918C56994EFC0184918823D1F090E047
:101D3000880F991FFC01EA56FF4FA591B491FC0151
:101D4000E657F94EC591D49161110EC09FB7F89432
:101D50008C91E22FE0958E238C932881E223E883F7
:101D60009FBFDF91CF9108958FB7F894EC91E22B4C
:101D7000EC938FBFF6CF1F93CF93DF93182FEB0118
:101D800061E00E948A0E209739F460E0812FDF9194
:101D9000CF911F910C945C0ECF3FD10511F461E0FF
:101DA000F5CFE12FF0E0E056FF4FE491E33031F161
:101DB00040F4E130B1F0E230E1F0C038D1057CF719
:101DC000E4CFE73029F1E83059F1E430B1F7809100
:101DD0008000806280938000D0938B00C0938A0043
:101DE00004C084B5806884BDC7BDDF91CF911F91C9
:101DF000089584B5806284BDC8BDF7CF809180000E
:101E0000806880938000D0938900C0938800EDCFD4
:101E10008091B00080688093B000C093B300E5CF9C
:101E20008091B00080628093B000C093B400DDCF99
:101E30008E50806480937C0080917A0080648093CF
:101E40007A0080917A0086FDFCCF80917800909195
:101E5000790008953FB7F8948091D5019091D6010B
:101E6000A091D701B091D80126B5A89B05C02F3FFE
:101E700019F00196A11DB11D3FBFBA2FA92F982FB0
:101E80008827BC01CD01620F711D811D911D42E0AB
:101E9000660F771F881F991F4A95D1F70895CF9233
:101EA000DF92EF92FF920F931F93CF93DF93CDB703
:101EB000DEB729970FB6F894DEBF0FBECDBF809175
:101EC000EA039091EB03892B09F480C0C090F003E2
:101ED000D090F103E090F203F090F3030E942A0FF8
:101EE0006C157D058E059F0550F40E942A0F6093A6
:101EF000F0037093F1038093F2039093F3030E9435
:101F00002A0F0091F0031091F1032091F203309118
:101F1000F303601B710B820B930B6C3271408105D4
:101F20009105A0F2F8948091E5039091E6039A83DD
:101F30008983E091EA03F091EB03DF011196808140
:101F400089879091E103E091F403F091F50380918A
:101F5000F603992309F449C09081982B98879081C2
:101F6000809589238F838F818C8388E08B8358852C
:101F70006F8149853B812C8189819A81508347FDFE
:101F8000252F3A952083262F39F0441F00C00000EA
:101F90006083000000C0F2CF38E04D916083000004
:101FA000019761F7F093F503E093F40349873B83CE
:101FB0002C839A83898378940E942A0F6093F0037C
:101FC0007093F1038093F2039093F30329960FB675
:101FD000F894DEBF0FBECDBFDF91CF911F910F915F
:101FE000FF90EF90DF90CF9008959081982B988785
:101FF0009081809589238F838F818E8388E08D8364
:1020000058856F8149853D812E8189819A815083D0
:1020100047FD252F00C000C0208300C000C000C0C5
:1020200000C000C060830000262F3A9541F0441F95
:10203000000000C000C000C000C000C0E8CF38E011
:102040004D9100C0608300C0019709F7F093F5033C
:10205000E093F40349873D832E83ABCF8F929F9209
:10206000AF92BF92CF92DF92EF92FF926B017C0111
:102070000E942A0F4B015C01C114D104E104F10458
:10208000B9F00E942A0F681979098A099B09683EEC
:1020900073408105910580F321E0C21AD108E1085F
:1020A000F10888EE880E83E0981EA11CB11CE4CFD5
:1020B000FF90EF90DF90CF90BF90AF909F908F9068
:1020C00008952091DB013091DC012817390771F464
:1020D0009091D9018091DA01981741F0E091D901EE
:1020E000F0E0E057FE4F808190E008958FEF9FEF82
:1020F00008950895EF92FF920F931F93CF93DF936C
:10210000DC015C96ED90FC905D97E114F10479F4AC
:1021100081E090E013969C938E93129790E080E07C
:10212000DF91CF911F910F91FF90EF9008955196FD
:10213000ED91FC91529750968C915097982F9095D5
:102140000FB75E962C915E97122F127021FD60954D
:10215000F8942081112319F1282B2083E70121977E
:10216000F1F728E0462F50E0308160FF1AC0382B8D
:102170003083E7012197F1F7BA01759567952150F2
:1021800089F7112381F08081892380830FBF5C96BA
:102190008D919C910197F1F781E090E0C1CF2923C7
:1021A000DCCF3923E5CF9081892BEFCF2091DB0164
:1021B0003091DC012817390771F48091DA01209100
:1021C000D90190E0805C9F4F821B910960E470E030
:1021D0000E946330089590E080E008952091DB0133
:1021E0003091DC0128173907B9F49091D901809119
:1021F000DA01981789F0E091D901F0E0E057FE4F3D
:1022000080812091D90130E02F5F3F4F2F7333271A
:102210002093D90190E008958FEF9FEF08952091CA
:102220006D01260F3327331F21323105ECF4209145
:102230003B02FC0190E080E0243069F082E00895E8
:10224000A0916D012191AC01435B5E4FA40FB52FAE
:10225000B11D2C930196861798F380916D01680F3C
:1022600060936D0180E0089581E0089510923B0233
:1022700081E080933A021092150261E082E10E94AF
:102280005C0E61E083E10E945C0EE9EBF0E080818E
:102290008E7F808380818D7F808388E48093B800E7
:1022A00085E48093BC000895CF93DF9391E09093F1
:1022B0004C018823B9F0C091B800D091BA00809148
:1022C000BC008A7B8093BC0060E082E10E945C0ECF
:1022D00060E083E10E945C0E0E943611D093BA0048
:1022E000C093B800DF91CF9108958F929F92AF92E3
:1022F000BF92CF92DF92EF92FF920F931F93CF93F3
:10230000DF93D091D103D13208F0D7C0182FC091FC
:1023100062020E942A0F6B017C0180913B028111B5
:102320006BC082E080933B0210933A028FEF809360
:10233000390210923802D0933702A2E4B2E0E7E10A
:10234000F2E080E0D81391C010921602809116023C
:10235000CC0FC82BC093160280911502813009F072
:1023600088C0109215020E942A0F6B017C01809197
:1023700016028093BB0080913D0290913E02A09195
:102380003F02B0914002892B8A2B8B2BA1F00E9437
:102390002A0F00913D0210913E0220913F023091A0
:1023A00040026C197D098E099F0906171707280737
:1023B000390708F442C08091BC0083FDD8CF85EC7A
:1023C0008093BC000E942A0F6B017C0180913B022C
:1023D000823009F450C0809139028F3F09F46FC0F8
:1023E00080913902803209F46CC0809139028033C7
:1023F00009F469C084E026C080913D0290913E02BC
:10240000A0913F02B0914002892B8A2B8B2B09F4BB
:1024100084CF0E942A0F80903D0290903E02A090AF
:102420003F02B09040026C197D098E099F09861603
:102430009706A806B90608F070CF80913C020E946A
:10244000541185E01092D2031092D10310924102F0
:10245000DF91CF911F910F91FF90EF90DF90CF9080
:10246000BF90AF909F908F9008959D9191938F5FB3
:1024700069CF85EEA5CF80913D0290913E02A0915B
:102480003F02B0914002892B8A2B8B2B09F49ECFFF
:102490000E942A0F00913D0210913E0220913F02BE
:1024A000309140026C197D098E099F0906171707A4
:1024B0002807390708F08ACFC0CF81E0C3CF80E07A
:1024C000C1CF82E0BFCF83E0BDCFE091D403809144
:1024D000D303E81730F4F0E0E352FE4F808190E040
:1024E00008958FEF9FEF08959091D4038091D303C7
:1024F0002FEF3FEF981748F4E92FF0E0E352FE4F3B
:10250000208130E09F5F9093D403C9010895CF925A
:10251000DF92EF92FF920F931F93CF93DF937C0193
:10252000CB018A0120914102222389F0EB016B014A
:10253000C40ED51ECC15DD0569F06991D701ED916A
:10254000FC910190F081E02DC7010995F3CF642F34
:102550000E940F11C801DF91CF911F910F91FF9041
:10256000EF90DF90CF900895CF93DF931F92CDB778
:10257000DEB76983209141022223F9F02091D10333
:10258000203258F021E030E0FC013383228390E0D8
:1025900080E00F90DF91CF9108958091D203E82FD2
:1025A000F0E0EE5BFD4F998190838F5F8093D203C3
:1025B0008093D10381E090E0ECCF61E0CE01019601
:1025C0000E940F11F7CF682F85ED93E00C94B412A1
:1025D000EF92FF920F931F93CF93DF937B018A01BA
:1025E000E90121E02093410220E22093620210924F
:1025F000D2031092D1030E94E312C7010E94E3129A
:10260000C8010E94E312CE010E94E31281E0DF9133
:10261000CF911F910F91FF90EF900C94751190E066
:1026200080E00895AB0130E020E063E170E085EFE9
:1026300090E00C94E812AB0130E020E062E170E041
:1026400082EF90E00C94E812AB0130E020E061E111
:1026500070E081EF90E00C94E8129B013327472F44
:1026600050E060E170E082EF90E00C94E8129B0192
:102670003327472F50E06FE070E081EF90E00C943B
:10268000E812AB0130E020E06EE070E082EF90E015
:102690000C94E812AB0130E020E06DE070E081EFD7
:1026A00090E00C94E81230E020E050E040E064E07C
:1026B00070E082EF90E00C94E81230E020E050E00F
:1026C00040E062E070E082EF90E00C94E81230E0CD
:1026D00020E050E040E063E070E081EF90E00C9497
:1026E000E81230E020E050E040E061E070E081EF8F
:1026F00090E00C94E812CF93DF93EC01ECE3F1E06F
:1027000064E670E00E946330605D60832AE030E040
:10271000B9010E946330605D6183CE01B9010E94FE
:102720006330805D8283CF01DF91CF9108958F92D6
:102730009F92AF92BF92EF92FF920F931F93CF930E
:10274000DF93EC017B018A01853B910508F4B6C05B
:1027500088E691E09C012C1B3D0BE901C73E3BE95B
:10276000D307C0F561E070E08DEF93E00E94241381
:1027700061E070E08DEF93E00E941B1361E070E078
:102780008DEF93E00E944A1361E070E08DEF93E0DB
:102790000E944113BE0190E080E00E94B72C2EEB16
:1027A0003FE94AE15FE30E94042F0E947D2F4B0125
:1027B0008DEF93E00E947113B4018DEF93E00E94BE
:1027C00037138DEF93E00E945D13B4018DEF93E01A
:1027D0000E942D13BE0190E080E00E94B72C26E6F7
:1027E00036E646EE5EE30E94042F20E030E040E251
:1027F00051E40E94182D0E947D2F0E942E1069E640
:1028000070E0EA94EF2811F06BE470E08DEF93E054
:102810000E94121368EC70E080E090E00E942E109D
:1028200061E070E08DEF93E00E94241361E070E0BE
:102830008DEF93E00E941B1361E070E08DEF93E059
:102840000E944A1361E070E08DEF93E00E94411313
:102850008DEF93E00E946713B8018DEF93E00E9423
:1028600037138DEF93E00E945D13B8018DEF93E075
:102870000E942D138AE0809FB001819F700D11246A
:1028800090E080E00E94B72C2DEC3CEC4CE45FE340
:102890000E94042F0E947D2F0E942E106BE470E096
:1028A0008DEF93E0DF91CF911F910F91FF90EF900B
:1028B000BF90AF909F908F900C94121361E070E0E6
:1028C0008DEF93E00E94241361E070E08DEF93E0C0
:1028D0000E941B1361E070E08DEF93E00E944A13A9
:1028E00061E070E08DEF93E00E944113BE0190E043
:1028F00080E00E94B72C2EEB3FE94AE15FE30E94A3
:10290000042F0E947D2F4B018DEF93E00E946713EF
:10291000B4018DEF93E00E9437138DEF93E00E9496
:10292000531353CFCF93DF93EC01888199810097A4
:1029300011F00E942031198218821D821C821B8294
:102940001A82DF91CF910895FC01808191810097D7
:1029500011F00C94203108952F923F924F925F9284
:102960006F927F928F929F92AF92BF92CF92DF929F
:10297000EF92FF920F931F93CF93DF93CDB7DEB704
:1029800028970FB6F894DEBF0FBECDBF2CE1AC0187
:10299000249FC001259F900D11249C01245E334F7C
:1029A0006DEF73E07A836983DB0170E060E0F90129
:1029B000459154915C834B83AB014F5F5F4FEB813B
:1029C000FC81EF2B91F0F9013296FC83EB83129698
:1029D0006E30710551F0F90125913491BA011196CB
:1029E0003C932E932B813C81E2CF440F551FFA017B
:1029F000E350FC4F21E430E031832083312C212C43
:102A000018861F829C012E543F4F3E832D8389815F
:102A10009A81FC0142815381440F551F440F551F79
:102A20004C5E544FFA0125913491FC0180819181D3
:102A3000BF016E5F7F4F7A836983880F991F880F6C
:102A4000991F8C5E944FFC0165917491261B370B86
:102A5000FA01329645915491FC01329685919491F8
:102A6000481B590B80911F0490912004289FF0016E
:102A7000299FF00D389FF00D1124FC83EB83489FB4
:102A80008001499F100D589F100D1124BF01FF0FA9
:102A9000880B990B0E94B92C6B017C01B801012EA7
:102AA000000C880B990B0E94B92C4B015C01A7010B
:102AB0009601C701B6010E94182D2B013C01A5010A
:102AC0009401C501B4010E94182D9B01AC01C30102
:102AD000B2010E94692E0E94E62F2B013C012B813E
:102AE0003C811216130614F517FF4EC0A70196017C
:102AF000C501B4010E94042F0E94D52E20E030E0D1
:102B000044EB53E40E94182D2BED3FE049EC50E4D8
:102B10000E94042F20E030E044EB53E40E94692E31
:102B20000E94762F8B0118870F8349C04B815C81EF
:102B3000452BE9F017FFAAC0A7019601C501B40112
:102B40000E94042F0E94D52E20E030E044EB53E495
:102B50000E94182D2BED3FE049EC50E40E94042F19
:102B600020E030E044E353E40E94692E24C01016B4
:102B700011061CF46AE570E020C017FF20C08EE04B
:102B800091E098878F831BC00115110561F2A701A1
:102B90009601C501B4010E94042F0E94D52E20E0A9
:102BA00030E044EB53E40E94182D2BED3FE049EC5C
:102BB00050E40E94042F0E94762F78876F83E12CC7
:102BC000F12C2114310451F0F101EE0FFF1F2D8182
:102BD0003E81E20FF31F859194917C0100911D04C9
:102BE00010911E044F8158854017510764F0C301AE
:102BF000B2010E947D2FAB01B7018F819885801BA8
:102C0000910B0E94971300911D0410911E046F8177
:102C100078856017710784F4C301B2010E947D2F8B
:102C200028E631E0201B310BAB01B7018F8198857D
:102C3000820F931F0E9497138F81988590931E0493
:102C400080931D049FEF291A390AE981FA81808156
:102C500091818134910509F0DACE28960FB6F89467
:102C6000DEBF0FBECDBFDF91CF911F910F91FF90BF
:102C7000EF90DF90CF90BF90AF909F908F907F901C
:102C80006F905F904F903F902F900895012B09F027
:102C900053CF24EB30E038872F8391CFEF92FF9210
:102CA0000F931F93CF93DF938C01DC011496ED906B
:102CB000FC90D0E0C0E0CE15DF050CF09EC1F8011D
:102CC00084819581C817D90730F40190F081E02DF7
:102CD000309709F06FC010921402E4E1F2E0E08155
:102CE000E052EF3508F06DC00E2E000CFF0BE558DA
:102CF000F94E0C947730DD16E316E616E916EC165D
:102D0000EF16F216F516F816FB16FE160117041745
:102D100007170A170D1710171317161719171C176F
:102D20001F172217251728172B172E17311734179F
:102D300037173A173D1740174317461749174C17CF
:102D40004F175217551758175B175E1761176417FF
:102D50006A1767176D1770177317761779177C172F
:102D60007F178217851788178B178E17911794175F
:102D700097179A179D17A017A317A617A917AC178F
:102D8000AF17B217B517B817BB17BE17C117C417BF
:102D9000CA17C717CD17D017D317D617D917DC17EF
:102DA000DF17E217E517E817EB17EE17F117F4171F
:102DB000F717FA17EC0FFD1F92CF90E080E00E940A
:102DC000AC14219678CF81E090E0F9CF82E090E0DA
:102DD000F6CF83E090E0F3CF84E090E0F0CF85E0A1
:102DE00090E0EDCF86E090E0EACF87E090E0E7CF9B
:102DF00088E090E0E4CF89E090E0E1CF8AE090E0E5
:102E0000DECF8BE090E0DBCF8CE090E0D8CF8DE0A0
:102E100090E0D5CF8EE090E0D2CF8FE090E0CFCFA2
:102E200080E190E0CCCF81E190E0C9CF82E190E0F9
:102E3000C6CF83E190E0C3CF84E190E0C0CF85E1CD
:102E400090E0BDCF86E190E0BACF87E190E0B7CFC8
:102E500088E190E0B4CF89E190E0B1CF8AE190E0E1
:102E6000AECF8BE190E0ABCF8CE190E0A8CF8DE1CD
:102E700090E0A5CF8EE190E0A2CF8FE190E09FCFD0
:102E800080E290E09CCF81E290E099CF82E290E0F6
:102E900096CF83E290E093CF84E290E090CF85E2FA
:102EA00090E08DCF86E290E08ACF87E290E087CFF6
:102EB00088E290E084CF89E290E081CF8AE290E0DE
:102EC0007ECF8BE290E07BCF8CE290E078CF8DE2FA
:102ED00090E075CF8EE290E072CF8FE290E06FCFFE
:102EE00080E390E06CCF81E390E069CF82E390E0F3
:102EF00066CF83E390E063CF84E390E060CF85E327
:102F000090E05DCF86E390E05ACF87E390E057CF23
:102F100088E390E054CF89E390E051CF8AE390E0DA
:102F20004ECF8BE390E04BCF8CE390E048CF8DE326
:102F300090E045CF8EE390E042CF8FE390E03FCF2B
:102F400080E490E03CCF81E490E039CF82E490E0EF
:102F500036CF83E490E033CF84E490E030CF85E453
:102F600090E02DCF86E490E02ACF87E490E027CF51
:102F700088E490E024CF89E490E021CF8AE490E0D7
:102F80001ECF8BE490E01BCF8CE490E018CF8DE453
:102F900090E015CF8EE490E012CF8FE490E00FCF59
:102FA00080E590E00CCF81E590E009CF82E590E0EC
:102FB00006CF83E590E003CF84E590E000CF85E580
:102FC00090E0FDCE86E590E0FACE87E590E0F7CE82
:102FD00088E590E0F4CE89E590E0F1CE8AE590E0D6
:102FE000EECE8BE590E0EBCE8CE590E0E8CE8DE583
:102FF00090E0E5CE8EE590E0E2CEDF91CF911F919B
:103000000F91FF90EF900895FB0101900020E9F7E8
:103010003197AF01461B570BDC01ED91FC9102800B
:10302000F381E02D0994CF93DF93EC0163E58DE20A
:1030300094E00E947A10CE010E947B13009729F041
:10304000BC018DE294E00E94041860E58DE294E0FA
:103050000E947A10CE010E947B13009729F0BC01D8
:1030600083E692E00E94041860E471E083E692E057
:10307000DF91CF910C94041863E58DE294E00E94F7
:103080007A1060E58DE294E00E947A1063E471E0CA
:1030900083E692E00E94041860E471E083E692E027
:1030A0000C9404180F931F93CF93DF93EC01888146
:1030B0009981009759F02A813B812617370730F014
:1030C00081E0DF91CF911F910F9108958B016F5F88
:1030D0007F4F0E94A931009759F0998388831B8301
:1030E0000A832C813D81232B59F7FC011082E8CF04
:1030F00080E0E7CFEF92FF920F931F93CF93DF9380
:10310000EC017B018A01BA010E94521881110BC0A7
:10311000CE010E949214CE01DF91CF911F910F91A9
:10312000FF90EF9008951D830C83B70188819981EA
:103130000E946F32F0CFFB0101900020E9F7319738
:10314000AF01461B570B0C947A1885ED8093BC0099
:1031500080913D0290913E02A0913F02B0914002C9
:103160000796A11DB11D23E0B695A7959795879564
:103170002A95D1F72091BC0024FD03C010923B0298
:10318000089540913D0250913E0260913F0270913E
:103190004002452B462B472B69F30097A105B1054B
:1031A00041F025E32A95F1F700000197A109B10943
:1031B000E1CF80913C020C9454111F920F920FB6F4
:1031C0000F9211242F933F934F935F936F937F93AD
:1031D0008F939F93AF93BF93EF93FF9383E692E018
:1031E0000E947B0DFF91EF91BF91AF919F918F91C5
:1031F0007F916F915F914F913F912F910F900FBEF3
:103200000F901F9018951F920F920FB60F921124D6
:103210002F938F939F93EF93FF93E0917302F0911D
:1032200074028081E0917902F0917A0282FD1BC0E4
:10323000908180917C028F5F8F7320917D02821735
:1032400041F0E0917C02F0E0ED59FD4F958F8093C5
:103250007C02FF91EF919F918F912F910F900FBE64
:103260000F901F9018958081F4CF1F920F920FB688
:103270000F9211242F933F938F939F93AF93BF93FC
:103280008091D1019091D201A091D301B091D4014C
:103290003091D00123E0230F2D3758F50196A11D61
:1032A000B11D2093D0018093D1019093D201A093BE
:1032B000D301B093D4018091D5019091D601A09112
:1032C000D701B091D8010196A11DB11D8093D50100
:1032D0009093D601A093D701B093D801BF91AF913D
:1032E0009F918F913F912F910F900FBE0F901F9044
:1032F000189526E8230F0296A11DB11DD2CF1F926B
:103300000F920FB60F9211242F933F934F935F9319
:103310006F937F938F939F93AF93BF93EF93FF939D
:10332000E091DB01F091DC01309749F0A685B7858B
:103330008585968D91FF14C09C918923A1F4FF91FE
:10334000EF91BF91AF919F918F917F916F915F911D
:103350004F913F912F910F900FBE0F901F90189596
:103360009C91892361F7A389B4899C918589809573
:1033700089238C93868997890197F1F7608D718DE8
:10338000A685B785558538E020E0CB010197F1F798
:10339000822F90E095958795282F4C91452309F031
:1033A0002068315091F7868D81FD20958091DA015A
:1033B00090E001968F7399273091D901381799F0D1
:1033C000A091DA01B0E0A057BE4F2C938093DA01B0
:1033D000828D938D0197F1F7A389B4898C9195899A
:1033E000892B8C93ACCF868D8160868FF1CF1F9215
:1033F0000F920FB60F9211242F933F934F935F9329
:103400006F937F938F939F93AF93BF93EF93FF93AC
:103410008091B900887F803609F44AC0F0F588327F
:1034200009F4A7C018F5803109F49BC0B8F48823CB
:1034300009F4F9C0883009F494C0FF91EF91BF916D
:10344000AF919F918F917F916F915F914F913F913C
:103450002F910F900FBE0F901F901895883109F48F
:1034600088C0803251F78093390214C0803409F447
:103470009DC040F48033B9F38833F9F68093390264
:1034800085ECB0C0803509F485C0883509F496C054
:10349000883499F60E94A518D0CF883909F48CC0D9
:1034A00038F5883729F050F4883611F0803729F63E
:1034B00083E080933B0210928F0157C0883809F453
:1034C0007BC0803919F0803809F0B7CF80918F0127
:1034D000803208F071C0E0918F0181E08E0F8093FF
:1034E0008F018091BB00F0E0E159FE4F80833DC029
:1034F000803B39F0E0F4803A09F479C0883A09F069
:103500009CCF84E080933B0210926E0110926D017B
:10351000E091CD03F091CE03099580916D01811169
:103520000FC081E080936D0110924D0109C0803C75
:1035300009F4A6CF883C09F4A3CF883B09F07DCFDE
:10354000E0916E0181E08E0F80936E01F0E0E35B0D
:10355000FE4F80818093BB0090916E0180916D0140
:1035600029C0809116028093BB0085EC8093BC003B
:1035700064CF9091380280913702981758F5E09106
:10358000380281E08E0F80933802F0E0E95EFD4F53
:103590008081E9CFE091380281E08E0F809338027C
:1035A0008091BB00F0E0E95EFD4F8083909138028E
:1035B000809137029817C8F285E8D8CFE091380299
:1035C00081E08E0F809338028091BB00F0E0E95ECD
:1035D000FD4F808380913A0281115CCF81E080931E
:1035E000150284EA8093BC0010923B0226CF85EC42
:1035F0008093BC0010923B0280918F01803230F4A6
:10360000E0918F01F0E0E159FE4F108260918F014F
:1036100070E0E091CF03F091D0038FE691E009953F
:1036200010928F010ACF1092390234CF1F920F925D
:103630000FB60F9211242F933F934F935F936F9385
:103640007F938F939F93AF93BF93EF93FF9380915B
:1036500000030E94330E20910203309103032F5F79
:103660003F4F30930303209302039091CC03943691
:1036700018F095E09093010390910103933009F4C1
:1036800043C098F49230C9F0FF91EF91BF91AF9190
:103690009F918F917F916F915F914F913F912F916A
:1036A0000F900FBE0F901F901895943009F447C0EB
:1036B000953051F7882351F0E7CF8111E5CF809104
:1036C0000203909103038436910528F410920303BA
:1036D00010920203D9CF1092CC03E091CC0381E089
:1036E0008E0F8093CC03F0E080910203909103034E
:1036F000EE0FFF1FEC5FFC4F91838083109203035A
:103700001092020383E018C0813009F0BDCFE09130
:10371000CC038E0F8093CC03F0E080910203909154
:103720000303EE0FFF1FEC5FFC4F91838083109229
:1037300003031092020384E080930103A5CF882342
:1037400061F280910203909103038536910508F49C
:103750009BCF85E0F1CFFC0111821082138212828F
:1037600015821482FB0101900020E9F73197AF0127
:10377000461B570B0C947A18109266021092650241
:1037800088EE93E0A0E0B0E0809367029093680237
:10379000A0936902B0936A022AE031E03093640298
:1037A0002093630225EC30E03093700220936F0287
:1037B00024EC30E0309372022093710220EC30E070
:1037C000309374022093730221EC30E03093760240
:1037D0002093750222EC30E0309378022093770238
:1037E00026EC30E030937A022093790210927C022A
:1037F00010927D0210927E0210927F021092D803E6
:103800001092D7038093D9039093DA03A093DB033C
:10381000B093DC032CE131E03093D6032093D50341
:103820001092300410922F0480933104909332044C
:10383000A0933304B09334048EE291E090932E046D
:1038400080932D0410924404109243041092460475
:1038500010924504109248041092470410924A04B2
:103860001092490460914B046E7F6D7F60934B040E
:103870006695617081E0682787E00E945C0E61E0D8
:1038800087E00E948A0EEFEAF6E1E491E0933D04BE
:10389000EBE9F6E1E491F0E0EE0FFF1FE657F94E99
:1038A0008591949190933F0480933E0460E088E07A
:1038B0000E948A0E80914B0481FD04C061E088E083
:1038C0000E945C0E88E080933904E0EBF6E1E4911D
:1038D000E0933A04ECE9F6E1E491F0E0EE0FFF1F2B
:1038E000E058F94E8591949190933C0480933B0469
:1038F00062E471E087E294E00E94AB1B62E471E055
:1039000081E294E00E94AB1B1092D4031092D30387
:103910001092D2031092D1030E9436118AE89BE0E4
:103920009093CE038093CD038BE89BE09093D003DC
:103930008093CF0361E085E00E948A0E61E086E01B
:103940000E948A0E60E085E00E945C0E60E086E0E6
:103950000E945C0EEFEFF3E08EE1DF011D928A958D
:10396000E9F781E090E09093FE038093FD031092CD
:103970001E0410921D049093200480931F040E9443
:10398000361161E085E00E948A0E61E086E00E94C7
:103990008A0E60E085E00E945C0E60E086E00E9496
:1039A0005C0E60E084E10E948A0E60E085E10E9486
:1039B0008A0E60E08AE00E948A0E60E089E00E9440
:1039C0008A0E83E0809300036EE371E087EF93E05B
:1039D0000E94AB1B1092E2031092E9031092F003D5
:1039E0001092F1031092F2031092F30381E080939E
:1039F000EF038093EC031092ED0392E09093EE03BB
:103A00008093E1038CE090E09093E6038093E503DC
:103A10000E9484309093EB038093EA03009789F12E
:103A20002CE0FC0111922A95E9F784E090E0909354
:103A3000E4038093E30384E090E09093E8038093B1
:103A4000E7038091E203882341F061E084E00E9473
:103A50008A0E60E084E00E945C0EE8E9F6E1E49101
:103A6000F0E0EE0FFF1FE657F94E85919491909389
:103A7000F5038093F403ECEAF6E1E491E093F603B6
:103A800008951092E6031092E5031092E403109259
:103A9000E303D1CFCF93DF93CDB7DEB764970FB6F3
:103AA000F894DEBF0FBECDBF789484B5826084BD2C
:103AB00084B5816084BD85B5826085BD85B5816032
:103AC00085BD80916E00816080936E0010928100B0
:103AD000809181008260809381008091810081606B
:103AE000809381008091800081608093800080912C
:103AF000B10084608093B1008091B00081608093B8
:103B0000B00080917A00846080937A0080917A007E
:103B1000826080937A0080917A00816080937A003D
:103B200080917A00806880937A001092C100109290
:103B300048041092470410924604109245041092D3
:103B40004404109243048DE991E090934A048093D9
:103B5000490490913904963108F047C02DEB30E0CC
:103B600030934404209343042BE931E0309346041E
:103B7000209345042CE231E030934804209347041D
:103B80002091680084E0983048F031E09E3008F4DD
:103B900030E081E001C0880F3A95EAF7822B8093EC
:103BA00068002DE630E0983050F02BE630E09E3093
:103BB00030F02CE630E0963110F030E020E0309329
:103BC000410420934004292F30E0983008F0DEC1F2
:103BD00081E001C0880F9A95EAF7809342048091B2
:103BE000490490914A040197F1F78091470490911C
:103BF0004804892B49F1E091DB01F091DC0124E0DC
:103C0000ED32F20709F1309739F0A389B4899C911C
:103C10008589809589238C9380914B048E7F809336
:103C20004B041092DA011092D9018DE294E0909346
:103C3000DC018093DB01E0914004F091410480813C
:103C400090914204892B808364E670E087E294E0DF
:103C50000E94521864E670E081E294E00E945218DB
:103C6000F89412E01093B0001093B10084E68093B2
:103C7000B3001092B2001093700078941093010377
:103C80001092CC038091000360E00E948A0EE091C4
:103C90007302F09174021083E0916F02F091700250
:103CA0001082E0917102F09172028FEC8083109289
:103CB0007B02E0917702F091780286E08083E091C8
:103CC0007502F0917602808180618083E0917502B7
:103CD000F0917602808188608083E0917502F09196
:103CE0007602808180688083E0917502F09176028F
:103CF00080818F7D808330E020E050E040E070E004
:103D000060E086EF90E00E94E81264E670E080E0F8
:103D100090E00E942E108091E7039091E80397FDB8
:103D200008C061E00E948A0E60E08091E7030E9473
:103D30005C0E81E08093E20384E60E948C0B30E00D
:103D400020E050E040E067E070E085EF90E00E9406
:103D5000E8126BE470E08DEF93E00E9412133324BD
:103D600033948DE294E00E94D6108C01892B09F4E3
:103D700031C1F0900702F11014C01092FE011092B0
:103D8000FD01109200021092FF01109202021092A7
:103D90000102109204021092030210920602109285
:103DA00005028DE294E00E94EE10E82E89831A82CB
:103DB00000912B0410912C040F5F1F4FB80187E274
:103DC00094E00E945218882399F0209127043091A2
:103DD000280480912B0490912C04BE016F5F7F4FCB
:103DE000820F931F0E946F3210932C0400932B04B8
:103DF00030E5E312B6CF40912B0450912C044115CD
:103E0000510531F0E0912704F0912804309721F416
:103E100010921402E4E1F2E08081833509F0D3C00E
:103E2000F110D1C0609127047091280483E692E0DC
:103E30000E94FD0C60E471E083E692E00E940418A9
:103E4000E0902B04F0902C0441E0E41AF108CC241B
:103E5000C394D12CE114F10421F06701EE24E39422
:103E6000F12C18861F821A8619861C861B8650E044
:103E700040E062E471E0CE0107960E947A1800915A
:103E80002B0410912C04E016F10610F5C016D10693
:103E900008F48601E0912704F0912804E00FF11F57
:103EA000D080108260912704709128046E0D7F1DD0
:103EB000CE0107966115710509F475C00E949B1823
:103EC0008091270490912804080F191FF801D082CF
:103ED0008B859C8563E070E00E944F303B013DEF95
:103EE000432E31E0532E10E000E0B12CA12CA6149B
:103EF000B7040CF062C0FFEFAF1ABF0A680123E0FD
:103F0000C20ED11C4601C016D10610F04801860130
:103F10001A8219821C821B821E821D8250E040E0A0
:103F200062E471E0CE0101960E947A18EB84FC8471
:103F30008E149F04D8F40E151F0508F47801EF8144
:103F4000F885EE0DFF1D108110826F817885680D58
:103F5000791DCE0101966115710541F10E949B18F2
:103F60008F819885E80EF91EF701108389819A8167
:103F70000097F9F00E94762CF201619371932F0162
:103F8000CE0101960E94A4148601B1CF9E3040F468
:103F90002850310981E001C0880F2A95EAF71DCE2B
:103FA0002E503109F7CF0E9492148ACF0E949214AA
:103FB000D7CF60E070E0CB01DFCFCE0107960E9443
:103FC000A4143092070262E471E087E294E00E9458
:103FD0009B18C7CE84E093E0909311028093100267
:103FE0008091CC0390E09093130280931202809111
:103FF00001038530C9F58091060390910703885825
:1040000091098D35910508F085C08091CC038430ED
:1040100009F054C080910803909109038097479755
:1040200008F04CC080910A0390910B0309970997FF
:1040300008F044C010920F0210920E028FEF9FEF13
:10404000DC0180930A0290930B02A0930C02B093C0
:104050000D0221E030E0309309022093080282E053
:10406000809301031092CC0380910702882309F406
:10407000E6C4E091FD01F091FE01E456F109E7315B
:10408000F10508F0DAC4E95BFF4D0C947730D522D6
:104090006F2309242C259025C822F92534266D2666
:1040A0007E268026852687260C278927F5275328F4
:1040B000B12813296029AB29E12B272C8091CC034F
:1040C000843440F18091080390910903825491094E
:1040D0008E9700F590E080E040E050E0BA01FC01EE
:1040E000E65FFC4F208131812950310929303105AB
:1040F00088F4FC01E45FFC4F2081318126513109B5
:104100002131310528F120813181265031092730B4
:104110003105E8F18091CC038A3108F46DC08091BB
:10412000040390910503843F9140B0F510920F0273
:1041300010920E028FEF9FEFDC0180930A029093A2
:104140000B02A0930C02B0930D0282E090E01AC023
:10415000440F551F661F771F4160049680389105F4
:1041600009F0BDCF80E290E090930F0280930E02A1
:1041700040930A0250930B0260930C0270930D025D
:1041800081E090E0909309028093080268CF440F89
:10419000551F661F771FE1CF80910603909107039B
:1041A00085974B9748F5E0E0F3E082E090E040E04F
:1041B00050E0BA01A091CC039C012F5F3F4FA217A2
:1041C000130609F00CF485C020853185275031098C
:1041D0002730310508F07DC0228533852351310910
:1041E0002F30310508F468C0228533852A50310903
:1041F0002930310508F468C08091CC038D3008F473
:1042000097C021E030E038872F831A82198249E76E
:1042100053E0BE016F5F7F4FCE0107960E94890C6D
:10422000892B09F085C049E753E0BE016F5F7F4FDE
:10423000CE0107960E94890C019709F079C049E7E1
:1042400053E0BE016F5F7F4FCE0107960E94890C3D
:104250007C01892B09F06CC0812C912C5401209198
:10426000CC038F8198852817190609F00CF451C0EA
:1042700049E753E0BE016F5F7F4FCE0107960E9472
:10428000890C6C0149E753E0BE016F5F7F4FCE019F
:1042900007960E94890C31E0C316D10489F5892B59
:1042A00009F046C0880C991CAA1CBB1C689480F8B5
:1042B0004FEFE41AF40AD3CF440F551F661F771F40
:1042C00041600296349676CF440F551F661F771FC4
:1042D000F8CF01979595879590930F0280930E02E2
:1042E0000C972CF410920F0210920E0285CF40937F
:1042F0000A0250930B0260930C0270930D0225CFBB
:10430000CD28B1F40197A1F4880C991CAA1CBB1C00
:10431000CFCFF0920F02E0920E0280920A029092AA
:104320000B02A0920C02B0920D0283E090E02ACF23
:104330008091120290911302181619060CF086C093
:10434000E1E0F0E0F887EF83E0911002F0911102D4
:104350008281938189974E9708F078C082E090E03F
:1043600098878F83848195810B970A9708F06EC098
:1043700023E030E038872F831A8219824CEB51E01A
:10438000BE016F5F7F4FCE0107960E94890C7C01B2
:10439000892B09F05BC04CEB51E0BE016F5F7F4F92
:1043A000CE0107960E94890C019709F04FC0412C5D
:1043B000512C320120911202309113028F81988585
:1043C000821793070CF0D5C04CEB51E0BE016F5F34
:1043D0007F4FCE0107960E94890C5C0133E0E31603
:1043E000F10441F14CEB51E0BE016F5F7F4FCE0114
:1043F00007960E94890C6C0143E0E416F10461F415
:104400004CEB51E0BE016F5F7F4FCE0107960E94DB
:10441000890CC816D906D1F4A114B10409F49BC0C3
:10442000AA94AB2899F4CD2889F4440C551C661C39
:10443000771C9BC04CEB51E0BE016F5F7F4FCE01FC
:1044400007960E94890CA816B90661F22091120203
:1044500030911302388B2F87263031050CF4FFCDB5
:10446000209010023090110232E0230E311C83E0C4
:1044700090E09E878D87F5ECCF2EFDE9DF2EFCE1E5
:10448000EF2EF1E8FF2EF10164817581A080B180EB
:1044900090E080E00E94B72C2B013C01B50190E038
:1044A00080E00E94B72C4B015C012DEC3CEC4CE40D
:1044B0005FE30E94182D9B01AC01C301B2010E9471
:1044C000B22CF0E0E0E087FD14C02DEC3CEC4CE4B5
:1044D0005FE3C301B2010E94182D9B01AC01C5012D
:1044E000B4010E94B22CE2E0F0E087FD02C0E1E0FE
:1044F000F0E0A701960163E971E080E091E00E949D
:104500003F306F01FF0FEE08FF08C626D726E826CA
:10451000F9262D853E852F5F3F4F3E872D8732E060
:10452000230E311C8F859889ED85FE858E179F0798
:1045300009F0A9CFC0920A02D0920B02E0920C02BD
:10454000F0920D0280E290E090930F0280930E02B1
:104550008FEF9FEF17CECA94CD2809F077CF440C88
:10456000551C661C771C689440F8EFEFEE1AFE0AA3
:1045700021CFF0920F02E0920E0240920A02509276
:104580000B0260920C0270920D0284E090E0FACD72
:1045900030E020E050E040E070E060E086EF90E046
:1045A0000E94E8120E943C1848C28091FF0190913D
:1045B00000028936910541F461E070E08DEF93E0EF
:1045C0000E9424130E943C188091FF0190910002E8
:1045D0008A36910541F462E070E08DEF93E00E942D
:1045E00024130E943C188091FF01909100028536AF
:1045F000910531F48DEF93E00E9471130E943C18F5
:104600008091FF01909100028636910531F48DEF83
:1046100093E00E9467130E943C188091FF019091E3
:1046200000028437910551F46091010270910202F9
:104630008DEF93E00E944A130E943C188091FF0185
:10464000909100028537910551F4609101027091BB
:1046500002028DEF93E00E9437130E943C18809174
:10466000FF01909100028B369105C9F4209101025F
:104670003091020288EE93E0289FB001299F700DCF
:10468000389F700D11248091030290910402680FED
:10469000791F8DEF93E00E9437130E943C188091A0
:1046A000FF01909100028C36910541F470E060E0CA
:1046B0008DEF93E00E944A130E943C188091FF0105
:1046C000909100028D36910509F0B7C130E020E0ED
:1046D00050E040E067E170E081EF90E061CF8091D1
:1046E000FF01909100028936910541F461E070E08C
:1046F0008DEF93E00E941B130E943C188091FF01F4
:10470000909100028A36910541F462E070E08DEFED
:1047100093E00E941B130E943C188091FF0190912E
:1047200000028536910531F48DEF93E00E945D1310
:104730000E943C188091FF019091000286369105FD
:1047400031F48DEF93E00E9453130E943C18809146
:10475000FF01909100028437910551F460910102AC
:10476000709102028DEF93E00E9441130E943C1869
:104770008091FF01909100028537910551F460917D
:104780000102709102028DEF93E00E942D130E94AE
:104790003C188091FF01909100028B369105C9F47D
:1047A000209101023091020288EE93E0289FB0012F
:1047B000299F700D389F700D1124809103029091F4
:1047C0000402680F791F8DEF93E00E942D130E9461
:1047D0003C188091FF01909100028C36910541F4C4
:1047E00070E060E08DEF93E00E9441130E943C185E
:1047F0008091FF01909100028D36910509F01DC155
:1048000030E020E050E040E068E170E082EF90E0CE
:10481000C7CE8091FF01909100028736910561F427
:1048200030E020E050E040E065E070E083EF90E0B1
:104830000E94E8120E943C188091FF0190910002B2
:104840008836910561F430E020E050E040E068E017
:1048500070E083EF90E00E94E8120E943C18809183
:10486000FF01909100028B36910509F0E6C081E0CE
:104870008093410280E2809362021092D2031092F0
:10488000D10383EF90E00E94E3128BE090E00E945E
:10489000E31290E080E00E94E31290E080E00E944A
:1048A000E31281E00E9475110E942A0F6B017C01C6
:1048B00080913B02811164C081E080933B02809330
:1048C0003A029FEF90933902109238021092370209
:1048D0008093160280911602806480931602809164
:1048E0001502813009F081C0109215020E942A0F32
:1048F0006B017C01809116028093BB0080913D0288
:1049000090913E02A0913F02B0914002892B8A2BE8
:104910008B2BA1F00E942A0F00913D0210913E02C4
:1049200020913F02309140026C197D098E099F0948
:10493000061717072807390708F443C08091BC0001
:1049400083FDD8CF85EC8093BC000E942A0F6B01B9
:104950007C0180913B02813009F449C0809138028A
:1049600011E0811102C010913802E7E1F2E0ADEDF3
:10497000B1E080E0811751F191919D938F5FFACF63
:1049800080913D0290913E02A0913F02B091400281
:10499000892B8A2B8B2B09F48BCF0E942A0F009135
:1049A0003D0210913E0220913F02309140026C196D
:1049B0007D098E099F09061717072807390708F090
:1049C00077CF80913C020E94541110E01092D403E2
:1049D0001093D3038091D403181759F185ED93E018
:1049E0000E9474129C8B8B8BF5CF85EEACCF80919F
:1049F0003D0290913E02A0913F02B0914002892B6E
:104A00008A2B8B2B09F4A5CF0E942A0F00913D021F
:104A100010913E0220913F02309140026C197D09B5
:104A20008E099F09061717072807390708F091CF45
:104A3000C8CF8B899C890E9413181092070280E0CE
:104A400090E0892B09F48BC90E94670D882309F433
:104A500086C90E94000083C98091FF0190910002E5
:104A60008736910561F430E020E050E040E066E0F8
:104A700070E084EF90E00E94E8120E943C18809160
:104A8000FF01909100028836910561F430E020E04A
:104A900050E040E069E070E084EF90E00E94E812AE
:104AA0000E943C188091FF01909100028637910589
:104AB00001F5F0910102FA8B198A8091030290911D
:104AC000040229893A89820F931F9C0124513109DC
:104AD000253D334060F49C013327592F550F550B6A
:104AE000492F6CE070E084EF90E00E94E8120E9491
:104AF0003C188091FF01909100028737910509F0E1
:104B00009CCF40910102509102024A30510508F0B9
:104B100049CD30E020E066E170E084EF90E040CDE8
:104B20008091FF01909100028736910561F430E099
:104B300020E050E040E067E070E085EF90E00E9408
:104B4000E8120E943C188091FF0190910002883683
:104B5000910561F430E020E050E040E06AE070E070
:104B600085EF90E00E94E8120E943C188091FF01BE
:104B7000909100028837910569F46091010270916B
:104B80000202653B710520F48DEF93E00E94121341
:104B90000E943C188091FF01909100028937910595
:104BA00089F44091010250910202453B510540F4C5
:104BB00030E020E064E170E085EF90E00E94E812D0
:104BC0000E943C188091FF01909100028A37910564
:104BD00009F033CF4091010250910202453B51054B
:104BE00008F0E0CC30E020E065E170E085EF90E097
:104BF000D7CC8091FF01909100028736910539F45E
:104C00006FEF70E085E00E94BB0E0E943C1880911F
:104C1000FF01909100028836910539F470E060E060
:104C200085E00E94BB0E0E943C188091FF0190918C
:104C300000028338910509F000CF209101023091E4
:104C40000202AFEFB0E00E94592E24EB30E040E0CA
:104C500050E00E94D62D3093020220930102B90148
:104C600085E00E94BB0E9ECC8091FF0190910002D6
:104C70008736910539F46FEF70E086E00E94BB0E35
:104C80000E943C188091FF019091000288369105A6
:104C900039F470E060E086E00E94BB0E0E943C1890
:104CA0008091FF01909100028338910509F0C5CEF3
:104CB0002091010230910202AFEFB0E00E94592E24
:104CC00024EB30E040E050E00E94D62D3093020209
:104CD00020930102B90186E0C4CF84E10E94180F3D
:104CE0002FEF30E0DC010E947D302FEF33E040E019
:104CF00050E00E94D62D822F90E09DCE85E1EECF30
:104D00008AE00E94330E992796CE89E0FACF8091EF
:104D1000FF01909100028F37910531F480910102DB
:104D20000E948C0B0E943C188091FF019091000220
:104D30008B379105B9F4809101024091030250E054
:104D400070E060E0762F652F542F4427682B809108
:104D50000502482B90E080E00E94CD0B0E944F0F8F
:104D60000E943C188091FF01909100028C379105C0
:104D7000B9F4809101024091030250E070E060E0DC
:104D8000762F652F542F4427682B80910502482BDE
:104D900081E090E00E94CD0B0E944F0F0E943C18D2
:104DA0008091FF01909100028D379105B9F48091B7
:104DB00001024091030250E070E060E0762F652F21
:104DC000542F4427682B80910502482B82E090E005
:104DD0000E94CD0B0E944F0F0E943C188091FF0152
:104DE000909100028E37910509F027CE8091010243
:104DF0004091030250E070E060E0762F652F542F61
:104E00004427682B80910502482B83E090E00E94A4
:104E1000CD0B0E944F0FC6CB8091FF0190910002F5
:104E20008338910501F581E10E94180FBC01990FAB
:104E3000880B990B0E94B92C2EE230E940EA5BE323
:104E40000E94182D20E030E040E351E40E94182D2C
:104E500020E030E040E251E40E94182D0E94762FBD
:104E6000CB010E9413188091FF01909100028438B9
:104E7000910509F0E2CD81E10E94180FBC01990F64
:104E8000880B990B0E94B92C2EE230E940EA5BE3D3
:104E90000E94182D6B017C0127EC3BE447E15FE3A6
:104EA0000E94B22C87FD33C02DEC3CEC4CE45FE358
:104EB000C701B6010E94D32F0FEF1FEF18163CF168
:104EC00028EF33E543E45FE3C701B6010E94D32F27
:104ED00004E610E01816DCF020E030E04AE754E485
:104EE000C701B6010E94182D0E94762F9B01AC01CC
:104EF0002F54324041095109A4E6B0E00E94F52D3B
:104F00002CEA30E040E050E00E94D62D8901C80133
:104F100092CD8091FF01909100028538910531F486
:104F200060E08EE00E948A0E0E943C188091FF0192
:104F3000909100028638910531F461E08EE00E9484
:104F40008A0E0E943C188091FF01909100028138E6
:104F50009105C1F48091010290910202823891057D
:104F600089F4809103029091040260E084369105F7
:104F700021F08536910521F461E08EE00E945C0EFF
:104F80000E943C188091FF019091000280389105A9
:104F900061F480910102909102028238910529F416
:104FA0008EE00E94330E0E9413188091FF019091B1
:104FB00000028038910509F040CD80910102909166
:104FC00002028338910509F038CD8EE00E94180F57
:104FD0002FEF30E0DC010E947D302FEF33E040E026
:104FE00050E00E94D62DC90126CD8091FF019091FD
:104FF00000028538910531F460E08FE00E948A0E4E
:105000000E943C188091FF01909100028638910522
:1050100031F461E08FE00E948A0E0E943C1880917A
:10502000FF019091000281389105C1F48091010245
:10503000909102028238910589F480910302909147
:10504000040260E08436910521F08536910521F453
:1050500061E08FE00E945C0E0E943C188091FF018D
:10506000909100028038910561F480910102909145
:1050700002028238910529F48FE00E94330E0E94CB
:1050800013188091FF01909100028038910509F07A
:10509000D4CC80910102909102028338910509F0ED
:1050A000CCCC8FE093CF8091FF01909100028538A6
:1050B000910531F460E080E10E948A0E0E943C1864
:1050C0008091FF01909100028638910531F461E0F2
:1050D00080E10E948A0E0E943C188091FF0190910D
:1050E000000281389105C1F4809101029091020281
:1050F0008238910589F4809103029091040260E066
:105100008436910521F08536910521F461E080E136
:105110000E945C0E0E943C188091FF019091000259
:105120008038910561F480910102909102028238E9
:10513000910529F480E10E94330E0E94131880919A
:10514000FF01909100028038910509F076CC8091A2
:105150000102909102028338910509F06ECC80E142
:1051600035CF8091FF01909100028538910531F48F
:1051700060E08BE00E948A0E0E943C188091FF0143
:10518000909100028638910531F461E08BE00E9435
:105190008A0E0E943C188091FF0190910002813894
:1051A0009105C1F48091010290910202823891052B
:1051B00089F4809103029091040260E084369105A5
:1051C00021F08536910521F461E08BE00E945C0EB0
:1051D0000E943C188091FF01909100028038910557
:1051E00061F480910102909102028238910529F4C4
:1051F0008BE00E94330E0E9413188091FF01909162
:1052000000028138910509F018CC8091010290913B
:1052100002028338910509F010CC6091030270916D
:1052200004028BE01ECD8091FF0190910002853831
:10523000910531F460E08CE00E948A0E0E943C18D7
:105240008091FF01909100028638910531F40E940F
:105250003C1861E08CE00E948A0E8091FF019091E1
:10526000000281389105C1F48091010290910202FF
:105270008238910589F4809103029091040260E0E4
:105280008436910521F08536910521F461E08CE0AA
:105290000E945C0E0E943C188091FF0190910002D8
:1052A0008038910509F0C9CB8091010290910202EA
:1052B0008238910509F0C1CB8CE00E94330EBBCB44
:1052C0008091FF01909100028538910531F460E0F2
:1052D0008DE00E948A0E0E943C188091FF019091FF
:1052E00000028638910531F461E08DE00E948A0E5B
:1052F0000E943C188091FF01909100028138910535
:10530000C1F480910102909102028238910589F4E2
:10531000809103029091040260E08436910521F0AF
:105320008536910521F461E08DE00E945C0E0E94BB
:105330003C188091FF01909100028038910509F09E
:105340007CCB80910102909102028238910509F094
:1053500074CB8DE0B2CF8091FF01909100028C362A
:105360009105B1F430E020E050E040E06DE070E005
:1053700081EF90E00E94E81230E020E050E040E051
:105380006EE070E082EF90E00E94E8120E943C180C
:105390008091FF01909100028D369105B1F430E0CB
:1053A00020E050E040E067E170E081EF90E00E9493
:1053B000E81230E020E050E040E068E170E082EF89
:1053C00090E00E94E8120E943C188091FF019091A9
:1053D00000028E36910521F5009101021091020222
:1053E00062E070E08DEF93E00E94241362E070E0D1
:1053F0008DEF93E00E941B13B8018DEF93E00E94A4
:105400004A13B8018DEF93E00E9441138DEF93E0B2
:105410000E9467138DEF93E00E945D130E943C1879
:105420008091FF01909100028F36910521F5009146
:1054300001021091020262E070E08DEF93E00E94A1
:10544000241362E070E08DEF93E00E941B13B8011B
:105450008DEF93E00E944A13B8018DEF93E00E9414
:1054600041138DEF93E00E9471138DEF93E00E9442
:1054700053130E943C188091FF01909100028037E5
:10548000910521F5009101021091020262E070E0A5
:105490008DEF93E00E94241362E070E08DEF93E0C3
:1054A0000E941B13B8018DEF93E00E944A13B801CC
:1054B0008DEF93E00E9441138DEF93E00E947113F2
:1054C0008DEF93E00E945D130E943C188091FF01D4
:1054D000909100028137910521F500910102109110
:1054E000020262E070E08DEF93E00E94241362E01C
:1054F00070E08DEF93E00E941B13B8018DEF93E0F5
:105500000E944A13B8018DEF93E00E9441138DEF82
:1055100093E00E9467138DEF93E00E9453130E9463
:105520003C188091FF01909100028237910509F0AB
:1055300053C0209101023091020288EE93E0289F2F
:105540008001299F100D389F100D112460910302D6
:1055500070910402060F171F003A82E81807D0F571
:10556000E0900502F090060261E070E08DEF93E0BC
:105570000E94241361E070E08DEF93E00E941B1302
:10558000B7018DEF93E00E944A13B7018DEF93E0CE
:105590000E944113B80190E080E00E94B72C2EEBEE
:1055A0003FE942E05FE30E94042F0E947D2F6B01E0
:1055B0008DEF93E00E946713B6018DEF93E00E9498
:1055C00037138DEF93E00E945D13B6018DEF93E0EA
:1055D0000E942D130E943C188091FF0190910002BF
:1055E0008337910509F053C02091010230910202E6
:1055F00088EE93E0289F8001299F100D389F100DA1
:1056000011246091030270910402060F171F003AE3
:1056100092E81907D0F5E0900502F090060261E0EB
:1056200070E08DEF93E00E94241361E070E08DEF55
:1056300093E00E941B13B7018DEF93E00E944A1381
:10564000B7018DEF93E00E944113B80190E080E034
:105650000E94B72C2EEB3FE942E05FE30E94042F4B
:105660000E947D2F6B018DEF93E00E947113B601B4
:105670008DEF93E00E9437138DEF93E00E94531358
:10568000B6018DEF93E00E942D130E943C1880918B
:10569000FF01909100028536910509F044C0009108
:1056A000010210910202073EEBE91E07D0F5E090DF
:1056B0000302F090040261E070E08DEF93E00E943D
:1056C000241361E070E08DEF93E00E941B13B7019B
:1056D0008DEF93E00E944A13B7018DEF93E00E9493
:1056E0004113B80190E080E00E94B72C2EEB3FE917
:1056F0004AE15FE30E94042F0E947D2F6B018DEF32
:1057000093E00E946713B6018DEF93E00E94371378
:105710008DEF93E00E945313B6018DEF93E00E944A
:105720002D130E943C188091FF0190910002863653
:10573000910509F082C90091010210910202073E11
:10574000FBE91F0710F00C94D222E0900302F090C6
:10575000040261E070E08DEF93E00E94241361E0A9
:1057600070E08DEF93E00E941B13B7018DEF93E083
:105770000E944A13B7018DEF93E00E944113B801D4
:1057800090E080E00E94B72C2EEB3FE94AE15FE316
:105790000E94042F0E947D2F6B018DEF93E00E94E9
:1057A0007113B6018DEF93E00E9437138DEF93E0F4
:1057B0000E945D13B6018DEF93E00E942D130C94AF
:1057C000D2228091FF01909100029C012150310969
:1057D0002930310520F49093200480931F046EE358
:1057E00071E087EF93E00E949B1880910102209165
:1057F000FB033091FC03232B31F0E091F703F09190
:10580000F803309721F410921402E4E1F2E080836F
:105810001A8219821C821B821E821D826091F703EC
:105820007091F8036115710541F04091FB035091AF
:10583000FC03CE0101960E947A18CE0101960E94C7
:105840004E16CE0101960E94A4140C94D22280918F
:10585000FF01909100028038910509F0EEC8809117
:105860000A0290910B0299270E94131810920A02C3
:1058700010920B0210920C0210920D02DEC8809161
:10588000EA039091EB030E9420318091E70390910D
:10589000E80397FD03C060E00E948A0E87EF93E063
:1058A0000E94A41481E294E00E94A41487E294E090
:1058B0000E94A4148EE291E090932E0480932D0414
:1058C0008091DB019091DC018D52944071F4E09164
:1058D0004004F09141049081809142048095892395
:1058E00080831092DC011092DB0108951F93FC016C
:1058F00099278827BC01E89411911032E9F31930F7
:1059000010F01E30C8F31B3251F01D3249F4689478
:1059100006C00E949D2C610F711D811D911D11916A
:1059200010531A30B0F33EF49095809570956195C0
:105930007F4F8F4F9F4F1F910895592F482F372F1B
:10594000262F660F771F881F991F660F771F881FE6
:10595000991F620F731F841F951F660F771F881F83
:10596000991F08950E94F42C08F481E00895E894AA
:1059700009C097FB3EF490958095709561957F4F97
:105980008F4F9F4F9923A9F0F92F96E9BB27939545
:10599000F695879577956795B795F111F8CFFAF455
:1059A000BB0F11F460FF1BC06F5F7F4F8F4F9F4F86
:1059B00016C0882311F096E911C0772321F09EE8E4
:1059C000872F762F05C0662371F096E8862F70E04A
:1059D00060E02AF09A95660F771F881FDAF7880F24
:1059E0009695879597F90895990F0008550FAA0B7A
:1059F000E0E8FEEF16161706E807F907C0F01216E2
:105A00001306E407F50798F0621B730B840B950BE4
:105A100039F40A2661F0232B242B252B21F4089539
:105A20000A2609F4A140A6958FEF811D811D0895D6
:105A30000E942B2D0C949C2D0E948E2D38F00E94DC
:105A4000952D20F0952311F00C94852D0C948B2D21
:105A500011240C94D02D0E94AD2D70F3959FC1F3AD
:105A6000950F50E0551F629FF001729FBB27F00D0C
:105A7000B11D639FAA27F00DB11DAA1F649F662761
:105A8000B00DA11D661F829F2227B00DA11D621FB0
:105A9000739FB00DA11D621F839FA00D611D221F6A
:105AA000749F3327A00D611D231F849F600D211D4E
:105AB000822F762F6A2F11249F5750409AF0F1F0D1
:105AC00088234AF0EE0FFF1FBB1F661F771F881F3A
:105AD00091505040A9F79E3F510580F00C94852DC0
