:100000000C94600B0C94880B0C94880B0C941A18AD
:100010000C941A180C941A180C94880B0C94B1199F
:100020000C94880B0C94880B0C94880B0C94880B04
:100030000C94880B0C94880B0C94880B0C94880BF4
:100040000C94D0170C94880B0C94880B0C94880B90
:100050000C94880B0C94880B0C94880B0C94880BD4
:100060000C9492180C94880B084AD73B3BCE016E37
:1000700084BCBFFDC12F3D6C74319ABD56833DDAFF
:100080003D00C77F11BED9E4BB4C3E916BAAAABE0E
:10009000000000803F0000000000240027002A002C
:1000A0000000000800020100000304070000000037
:1000B0000000000000000000000000000000000040
:1000C0000000000000000000000000000000000030
:1000D000010000000100010001000100000000001B
:1000E000000000000000000000000000010001000E
:1000F00001000100010000000100010001000100F9
:1001000001000000000000000100000001000000EC
:1001100001000000010000000000000000000000DD
:1001200000000000010001000100010001000100C9
:1001300001000100010000000100000000000000BB
:1001400001000100010001000000010000000100A9
:10015000010001000100000000000000010001009A
:100160000100010001000100010001000100010087
:100170000100010000000000010001000100010079
:10018000010000000000000000000000000000006E
:10019000000000000100010001000000000000005C
:1001A000000000000000000000000000000000004F
:1001B000010001000100000000000000000000003C
:1001C000000000000000000000000000010000002E
:1001D000010000000100000001000000000000001C
:1001E000000000000000000001000000010000000D
:1001F00000000000000000000000000000000000FF
:1002000000000000010001000100010001000000E9
:1002100000000000000000000000000000000000DE
:1002200001000000000000000000000000000000CD
:1002300000000000000000000000000001000100BC
:1002400001000100000000000000000000000000AC
:10025000000000000000000001000000000000009D
:10026000000000000000000000000000000000008E
:100270000000000001000100010001000100010078
:10028000010001000000000000000000000000006C
:10029000010001000000010000000000000000005B
:1002A000000000000000000000000000010001004C
:1002B0000100010001000100010000000000000039
:1002C000000000000000000001000100010001002A
:1002D000010001000100010000000000000000001A
:1002E000000000000100010001000100000000000A
:1002F00000000000000000000000000000000000FE
:1003000000000100010001000100010001000100E6
:1003100001000100000000000000000000000100DA
:1003200001000100010001000100010001000100C5
:1003300000000000000000000100010000000000BB
:1003400000000000000000000000000000000000AD
:100350000000000001000100010001000000010098
:10036000000000000000000000000000000000008D
:100370000000010001000100010001000100010076
:100380000000010001000000000000000100010069
:100390000100010000000100010001000100000057
:1003A0000000000000000000010001000100010049
:1003B0000000010001000100010001000000000038
:1003C000000000000100010000000000000000002B
:1003D000000000000000000000000000000000001D
:1003E000010000000100000000000000000000000B
:1003F00000000000000000000000000001000100FB
:1004000000000000000000000000000000000000EC
:1004100000000000000000000100010001000100D8
:1004200001000100000001000100010001000000C6
:1004300000000000010001000100010001000100B6
:1004400000000100010001000100010001000000A6
:100450000100010000000100000000000000000099
:10046000000000000000000000000000010001008A
:100470000100010001000000010001000100010075
:100480000100000000000000010001000100010067
:100490000100010001000000000000000000000059
:1004A0000000000001000100010001000100010046
:1004B000000000000000000000000000000000003C
:1004C0000100010001000000010000000000000028
:1004D000000000000000000000000000010001001A
:1004E000000001000000000000000000000000000B
:1004F00000000000000000000100010001000100F8
:1005000001000100010001000100000000000000E6
:1005100000000000010000000100000001000000D8
:1005200000000000000000000000000000000000CB
:1005300001000000010000000100000000000000B8
:1005400000000000000000000000000001000100A9
:100550000100010001000000000000000000000098
:100560000000000000000000010001000100010087
:10057000000000000000000000000000000000007B
:100580000000000001000100000000000000000069
:10059000000000000000000000000000000000005B
:1005A0000100010001000000000000000000000048
:1005B0000000000000000000000000000100010039
:1005C0000100010000000000000000000000000029
:1005D0000000000000000000010001000100010017
:1005E0000100010001000100000000000000000007
:1005F00000000000010000000100010001000100F6
:1006000001000000000000000000000000000000E9
:1006100001000100010001000100010001000100D2
:1006200000000100000000000000000001000100C7
:1006300001000100010001000000000000000000B6
:1006400000000000000000000100010001000100A6
:100650000100010001000100010000000000000095
:100660000000000001000000010000000000000088
:10067000000000000000000000000000000000007A
:100680000100010001000100010000000000000065
:100690000000000000000000000000000100010058
:1006A000000000000000000000000000000000004A
:1006B0000000000000000000010001000100010036
:1006C000000000000000000000000000000000002A
:1006D0000000000001000000010000000000000018
:1006E000000000000000000000000000000000000A
:1006F00001000100000001000000000000000000F7
:1007000000000000000000000000000001000100E7
:1007100001000000000000000000000000000000D8
:1007200000000000000000000100010001000000C6
:1007300000000000000000000000000000000000B9
:1007400000000000010000000000000000000000A8
:100750000000000000000000000000000000000099
:100760000100010000000000000000000000000087
:100770000000000000000000000000000100000078
:100780000000000000000000000000000000000069
:100790000000000000000000010000000000000058
:1007A0000000000000000000000000000000000049
:1007B0000000000001000100010001000100010033
:1007C0000100010001000000000000000000000026
:1007D0000100010001000100010001000000000013
:1007E0000000000000000000000000000100010007
:1007F00001000100010001000100000000000000F4
:1008000000000000000000000100010001000100E4
:1008100001000100000000000000000000000000D6
:1008200000000000010001000100010001000100C2
:1008300001000100010000000000000000000000B5
:1008400001000100010000000100000000000000A4
:100850000000000000000000000000000100010096
:100860000100010001000100010001000100010080
:100870000100000000000000010001000100010073
:100880000100000000000000000000000000000067
:100890000000000001000100010001000000010053
:1008A0000000000000000000000000000000000048
:1008B0000100010001000100000001000100010031
:1008C0000100000000000000000000000100000026
:1008D0000100010000000000000000000000000016
:1008E0000000000000000000010001000000000006
:1008F00000000000000000000000000000000000F8
:1009000000000000010000000100010001000100E2
:1009100000000000000000000000000000000000D7
:1009200001000000010001000100010000000100C1
:1009300001000100010000000000000001000100B2
:1009400001000100010001000100010000000000A1
:100950000000000000000000010001000100010093
:100960000100010000000000000000000000000085
:100970000000000001000100010001000100010071
:100980000000000000000000000000000000000067
:100990000100000001000100010001000000000052
:1009A0000000000000000000000000000100010045
:1009B0000100010001000100010001000100000030
:1009C0000000000000000000010000000100010024
:1009D0000100010000000000000000000000000015
:1009E0000000000001000100010001000100010001
:1009F00000000100000000000000000000000000F6
:100A000001000100000000000000000000000000E4
:100A100000000000000000000000000001000100D4
:100A200001000100000000000000000000000000C4
:100A300000000000000000000100000001000000B4
:100A400000000000000000000000000000000000A6
:100A50000000000001000100010001000100000091
:100A60000100010000000000000000000000000084
:100A70000100010001000000000000000000000073
:100A80000000000000000000000000000100010064
:100A90000100010001000100000000000000000052
:100AA0000000000000000000010000000000000045
:100AB0000000000000000000000000000000000036
:100AC0000000000001000100010001000100010020
:100AD0000000000000000000000000000000000016
:100AE0000100010001000100010000000000000001
:100AF00000000000000000000000000000000000F6
:100B000000000000000000000000000000000000E5
:100B100000000000000000000000000014000000C1
:100B2000280000003C0000005000000064000000AD
:100B3000780000008C000000000014001400140075
:100B4000280014003C00140050001400640014003D
:100B5000780014008C001400000028001400280005
:100B6000280028003C0028005000280064002800CD
:100B7000780028008C00280000003C0014003C0095
:100B800028003C003C003C0050003C0064003C005D
:100B900078003C008C003C00000050001400500025
:100BA000280050003C0050005000500064005000ED
:100BB000780050008C0050000000640014006400B5
:100BC000280064003C00640050006400640064007D
:100BD000780064008C006400000078001400780045
:100BE000280078003C00780050007800640078000D
:100BF000780078008C00780000008C0014008C00D5
:100C000028008C003C008C0050008C0064008C009C
:100C100078008C008C008C00DC00000001000800D3
:100C200000000000000000000000000000000000C4
:100C300000000000000000000500250035003D0018
:100C40003C003400350000000000000000000000FF
:100C5000000000000C000B00030004000C00130057
:100C60000E000D00050006000E001500000000003B
:100C7000120017002A002F0003003A0006003D0072
:100C80000000000000000000000000000F0006004F
:100C900004000B0013002F0037003E003C0033001F
:100CA00005003D000000000003000A0013000C00D6
:100CB0000300060009003E0035002E0037003E000C
:100CC00000000000270036003D003C0033002B00F0
:100CD00016000E00050004000B0013003F0000008A
:100CE0000D000C00040005000D00140000000000C1
:100CF00000000000000000000000000005001300DC
:100D00002B003D000000000000000000000000007B
:100D10000000000000000000040016002E003C004F
:100D200000000000000000000000000000000000C3
:100D300000000000220027000D003D0033001700D6
:100D40001300370000000000000000000000000059
:100D50002300270015003D000000000000000000F7
:100D6000000000000000000000000000350034001A
:100D70002C002D0035003C000000000000000000A9
:100D8000000000000000000022002700000000001A
:100D90000000000000000000000000000000000053
:100DA00000000000340035003D003C00340000002D
:100DB0000000000000000000000000000000000033
:100DC00006003B00000000000000000000000000E2
:100DD0000000000000000000000000000400060009
:100DE0000F0037003E003C0033000B000400000001
:100DF00000000000000000000C0005003D003C0069
:100E00003E000000000000000000000000000000A4
:100E10000000000013000B00040006000F00170084
:100E20003B003F0000000000000000000000000048
:100E3000030006001B001D00260036003D003C009C
:100E40003300000000000000000000000500230047
:100E500027003D000D000000000000000000000021
:100E60000000000000000000060003001B0014004A
:100E700015001E0036003D003C003300000000005D
:100E800000000000060004000B0033003C003E00A0
:100E9000370027001E001D00240000000000000095
:100EA000030006003E0000000000000000000000FB
:100EB0000000000000000000000000000B000E0019
:100EC0003E003B000B002300260000000000000055
:100ED00000000000000000001E00250024001B0090
:100EE0000B00040005000E0036003D003C003300FE
:100EF000000000000C000D00150014000C002C0078
:100F00002D00350034002C0000000000000000001F
:100F10001C001D0025002400350034002C002D008D
:100F200035003C0000000000000000000F0022001F
:100F30003F00000000000000000000000000000072
:100F40000000000000000000120017002A002F001F
:100F50000000000000000000000000000000000091
:100F6000000000000A0027003A0000000000000016
:100F70000000000000000000000000000000000071
:100F80000B00040005000E0016001D002D003400AB
:100F900035003D0035003600000000003F003C00F9
:100FA00033000B00040006000F0027002E002D0068
:100FB000240014000D0017003B0005003F00240032
:100FC00025000000000000000000000000000000FC
:100FD000000000000B000D0016001E00250023007D
:100FE00025002E0036003D003B000B0000000000F5
:100FF0000E00050004000B0033003C003D003600ED
:1010000000000000000000000000000003000500D8
:101010000E0036003D003B00030000000000000011
:1010200000000000000000000E000B003B003E002E
:101030002300260000000000000000000000000067
:1010400000000000060003003B001B001E00000023
:101050000000000000000000000000000000000090
:101060000E00050004000B0033003C003D0036007C
:1010700026002500000000000000000003003B00E7
:101080001B001E0006003E000000000000000000E3
:1010900000000000000000000400060005003D0004
:1010A0003C003E00000000000000000000000000C6
:1010B00000000000060036003D003C0033002B001D
:1010C0000000000000000000000000000000000020
:1010D00003003B0006001B003E0000000000000073
:1010E00000000000000000000000000003003B00C2
:1010F0003E000000000000000000000000000000B2
:1011000000000000000000003B0003003E0006005D
:1011100000000000000000000000000000000000CF
:10112000000000003A0002003D00080040000000FE
:1011300000000000000000000000000000000000AF
:10114000030006000F0037003E003B0032000A009B
:1011500003000000000000000000000003003B004E
:10116000030005000E0016001D001B00000000001B
:101170000000000000000000030006000F00370020
:101180003E003B0032000A00030036003F00000032
:10119000000000003B000300050016001D001B00BE
:1011A0003E00000000000000000000000000000001
:1011B0000F00060004000B0013002F0037003E0054
:1011C0003C003300000000000000000003000700A6
:1011D00005003D00000000000000000000000000CD
:1011E0000000000000000000030033003C003E004F
:1011F00037000700000000000000000000000000B1
:101200000000000003003D00070000000000000097
:1012100000000000000000000000000000000000CE
:1012200002003A0005004000080000000000000035
:1012300000000000000000000000000002003F006D
:101240003A0007000000000000000000000000005D
:10125000000000000000000003001D003D001D0014
:101260000700000000000000000000000000000077
:1012700000000000030007003B003F0007000000E3
:10128000000000000000000000000000000000005E
:10129000060004003C003E000700000000000000C3
:1012A00000000000000000000000000003003E00FD
:1012B0000000000007000000000000000000000027
:1012C00000000000000000001300050017000000EF
:1012D000000000000000000000000000000000000E
:1012E000000000003A003F00000000000000000085
:1012F00000000000000000000000000000000000EE
:1013000004001600000000000000000000000000C3
:101310000000000000000000000000002E0035006A
:1013200034002B0013000C000D0016002E003F00AF
:10133000000000000000000003003B003D003600FC
:101340002E00250023000000000000000000000027
:10135000000000001E00150014001B0033003C00BC
:101360003D0036000000000000000000000000000A
:101370001E001C00230033003C003E00060000005D
:101380000000000000000000000000002200270014
:1013900017000E000B00120032003B003E00370029
:1013A00000000000000000000E00050004003C00EA
:1013B0001B001E00000000000000000000000000F4
:1013C000000000001E00250025001B0013000C007B
:1013D0000D00160036003D003C0033000000000008
:1013E00004003C00240025002E003E000000000008
:1013F00000000000000000000000000015001400C4
:101400000C000D0015001D003D0000000000000054
:1014100000000000000000000E000D0005000600A6
:101420000E00160036003D003C00330000000000B6
:101430000000000003003B000E0023003E000000FF
:10144000000000000000000000000000000000009C
:1014500004003C003E00000000000000000000000E
:1014600000000000000000000000000013003B002E
:101470001B00140015001E003E00000000000000CC
:10148000000000000000000012003A001A001300E3
:1014900014001D003D001D00160017002000400034
:1014A00000000000140015001E0036003D003C0046
:1014B00033001B00140000000000000000000000CA
:1014C0003C000C000D0016001E002500240000004A
:1014D0000000000000000000000000003E000E00C0
:1014E0000D0014001C002500260000000000000074
:1014F00000000000000000000B0014003C0014007D
:101500000D000E00170000000000000000000000A9
:10151000000000000B0014003C0014000D000E0041
:1015200017000000000000000000000000000000A4
:1015300016000D000C0013001B002E0036003D00AD
:101540003C003300000000000000000013003300E6
:101550003C003D003600160036003F000000000051
:10156000000000000000000013003D001700000014
:10157000000000000000000000000000000000006B
:101580000000000013003B001D003F00170000009A
:10159000000000000000000000000000000000004B
:1015A00013003F0017003B00000000000000000097
:1015B0000000000000000000000000000B0013000D
:1015C0001C001D0016000E002E003D003B00000018
:1015D0000000000000000000130017003B003F0067
:1015E00000000000000000000000000000000000FB
:1015F00000000000050004001C0023002C003C003B
:101600003D0000000000000000000000000000009D
:1016100005003D0000000000000000000000000088
:1016200000000000000000000000000004000500B1
:101630001D0026002D003D003C00000000000000C1
:10164000000000000000000011000A000B001E0056
:101650001F00180000000000000000000000000053
:10166000000000000000000000000000000000007A
:10167000000000000000000000000000000000006A
:1016800000000000230026002900000000002500C3
:1016900028002B00040404040404040402020202CF
:1016A0000202030303030303010204081020408025
:1016B000010204081020010204081020461A9E2886
:1016C00011241FBECFEFD8E0DEBFCDBF11E0A0E0F8
:1016D000B1E0ECEBFDE502C005900D92AE32B10732
:1016E000D9F723E0AEE2B1E001C01D92AF38B207F6
:1016F000E1F71BE0CFE5DBE004C02197FE010E948B
:10170000D22CCE35D107C9F70E94901B0C94D12E54
:101710000C940000089508951F93CF93DF9311E078
:10172000180F20912E031217A1F1C0912F03D09111
:101730003003215070E060E061F08F3FF1F430E061
:1017400050E040E06FEF7FEF80E090E00E94312AB0
:10175000B901FE0140912A0350912B03CF018C1B4C
:101760009D0B8417950798F44081469FC001479FC1
:10177000900D112490833196EDCF812F90E0982F1A
:1017800088270197622F70E00E94AA2CE2CF109365
:101790002E03DF91CF911F9108958F929F92AF9268
:1017A000BF92CF92DF92EF92FF92CF9320912803C6
:1017B0003091290382179307E8F54B01AA24BB2433
:1017C000C82DC52ED62EE72EFF24BC2DA42F209188
:1017D0002E03222361F0829E40011124C92D2C9DED
:1017E00060011124BD2D249FF0011124AF2FE09141
:1017F0003403E0902F03F090300330913103E31372
:1018000023C09C01220F331F820F931F8E0D9F1D3B
:10181000E0913103E80FF92FF11DC083E09132030D
:10182000E80FF92FF11DB08320913303820F911D32
:10183000FC01A083CF91FF90EF90DF90CF90BF90FD
:10184000AF909F908F900895880F991F880F991FD0
:101850008E0D9F1D472F552766277727222349F096
:1018600030E0249F7001259FF00C349FF00C112470
:101870004F2DE80FF92FF11D4083CACF8091180337
:1018800090911903891B990B0895CF92DF92EF92E3
:10189000FF92CF93DF93EC01072E000C880B990B7E
:1018A0000E9414296B017C0120E030E040E45FE3FA
:1018B0000E94732920E030E048E452E40E945F2B4C
:1018C0000E94D12BC617D707D4F020E030E040EAC1
:1018D0005FE3C701B6010E94732920E030E048E4CD
:1018E00052E40E945F2B20E030E040E85FE30E947A
:1018F000C42A0E94D12B21E06C177D070CF420E054
:10190000822F90E0DF91CF91FF90EF90DF90CF900A
:1019100008958F929F92AF92BF92CF92DF92EF92F3
:10192000FF920F931F93CF93DF93FC0120813181AE
:10193000E091F401F091F50101E010E02E173F076E
:101940000CF043C0D901AA0FBB1FE091F201F09146
:10195000F301EA0FFB1FA080B1808901009510956B
:101960000170112720FD23C02CE93FEFEA016B0134
:101970007C014901840E951EB401C5010E94450CED
:10198000892BC1F48C0E9D1EB401C5010E94450C2B
:10199000892B49F5BE01680D791DC5010E94450CD2
:1019A00023E030E0892B41F40FEF1FEF0EC024E657
:1019B00030E0DCCF21E030E0F601808191810196BA
:1019C000821793079CF491838083C801DF91CF91A4
:1019D0001F910F91FF90EF90DF90CF90BF90AF904D
:1019E0009F908F90089522E030E0E6CF1182108220
:1019F000F701808191810196E6CFAF92BF92CF929D
:101A0000DF92EF92FF920F931F93CF93DF936C01BE
:101A10007B018B01040F151FEB015E01AE18BF089F
:101A2000C017D10759F06991D601ED91FC91019051
:101A3000F081E02DC6010995892B79F7C501DF9169
:101A4000CF911F910F91FF90EF90DF90CF90BF90BB
:101A5000AF900895833081F028F4813099F082307E
:101A6000A9F008958730A9F08830C9F08430B1F426
:101A7000809180008F7D03C0809180008F7780935C
:101A80008000089584B58F7784BD089584B58F7DD7
:101A9000FBCF8091B0008F778093B0000895809144
:101AA000B0008F7DF9CFCF93DF93282F30E0F9017D
:101AB000E056FF4F8491F901E855F94ED491F901B0
:101AC000EC56F94EC491CC23A1F081110E942A0D4D
:101AD000EC2FF0E0EE0FFF1FE058F94EA591B49106
:101AE000EC91ED2381E090E009F480E0DF91CF916B
:101AF000089580E090E0FACF1F93CF93DF93282FD3
:101B000030E0F901E056FF4F8491F901E855F94EB4
:101B1000D491F901EC56F94EC491CC23A9F0162FBB
:101B200081110E942A0DEC2FF0E0EE0FFF1FE65707
:101B3000F94EA591B4918FB7F894EC91111108C0AA
:101B4000D095DE23DC938FBFDF91CF911F91089555
:101B5000DE2BF8CFCF93DF9390E0FC01E855F94EF0
:101B600024918C56994EFC0184918823D1F090E009
:101B7000880F991FFC01EA56FF4FA591B491FC0113
:101B8000E657F94EC591D49161110EC09FB7F894F4
:101B90008C91E22FE0958E238C932881E223E883B9
:101BA0009FBFDF91CF9108958FB7F894EC91E22B0E
:101BB000EC938FBFF6CF1F93CF93DF93182FEB01DA
:101BC00061E00E94AA0D209739F460E0812FDF9137
:101BD000CF911F910C947C0DCF3FD10511F461E0A2
:101BE000F5CFE12FF0E0E056FF4FE491E33031F123
:101BF00040F4E130B1F0E230E1F0C038D1057CF7DB
:101C0000E4CFE73029F1E83059F1E430B1F78091C1
:101C10008000806280938000D0938B00C0938A0004
:101C200004C084B5806884BDC7BDDF91CF911F918A
:101C3000089584B5806284BDC8BDF7CF80918000CF
:101C4000806880938000D0938900C0938800EDCF96
:101C50008091B00080688093B000C093B300E5CF5E
:101C60008091B00080628093B000C093B400DDCF5B
:101C70008E50806480937C0080917A008064809391
:101C80007A0080917A0086FDFCCF80917800909157
:101C9000790008953FB7F8948091B7019091B80109
:101CA000A091B901B091BA0126B5A89B05C02F3FFC
:101CB00019F00196A11DB11D3FBFBA2FA92F982F72
:101CC0008827BC01CD01620F711D811D911D42E06D
:101CD000660F771F881F991F4A95D1F70895CF92F5
:101CE000DF92EF92FF920F931F93CF93DF93CDB7C5
:101CF000DEB729970FB6F894DEBF0FBECDBF809137
:101D00002F0390913003892B09F480C0C0903503D4
:101D1000D0903603E0903703F09038030E944A0ECB
:101D20006C157D058E059F0550F40E944A0E609348
:101D300035037093360380933703909338030E94E2
:101D40004A0E0091350310913603209137033091EC
:101D50003803601B710B820B930B6C327140810551
:101D60009105A0F2F89480912A0390912B039A8315
:101D70008983E0912F03F0913003DF011196808178
:101D8000898790912603E0913903F0913A0380917D
:101D90003B03992309F449C09081982B988790813F
:101DA000809589238F838F818C8388E08B835885EE
:101DB0006F8149853B812C8189819A81508347FDC0
:101DC000252F3A952083262F39F0441F00C00000AC
:101DD0006083000000C0F2CF38E04D9160830000C6
:101DE000019761F7F0933A03E093390349873B8306
:101DF0002C839A83898378940E944A0E60933503DA
:101E000070933603809337039093380329960FB667
:101E1000F894DEBF0FBECDBFDF91CF911F910F9120
:101E2000FF90EF90DF90CF9008959081982B988746
:101E30009081809589238F838F818E8388E08D8325
:101E400058856F8149853D812E8189819A81508392
:101E500047FD252F00C000C0208300C000C000C087
:101E600000C000C060830000262F3A9541F0441F57
:101E7000000000C000C000C000C000C0E8CF38E0D3
:101E80004D9100C0608300C0019709F7F0933A03B9
:101E9000E093390349873D832E83ABCF8F929F9286
:101EA000AF92BF92CF92DF92EF92FF926B017C01D3
:101EB0000E944A0E4B015C01C114D104E104F104FB
:101EC000B9F00E944A0E681979098A099B09683E8F
:101ED00073408105910580F321E0C21AD108E10821
:101EE000F10888EE880E83E0981EA11CB11CE4CF97
:101EF000FF90EF90DF90CF90BF90AF909F908F902A
:101F000008952091BD013091BE012817390771F461
:101F10009091BB018091BC01981741F0E091BB0109
:101F2000F0E0EE58FE4F808190E008958FEF9FEF34
:101F300008950895EF92FF920F931F93CF93DF932D
:101F4000DC015C96ED90FC905D97E114F10479F46E
:101F500081E090E013969C938E93129790E080E03E
:101F6000DF91CF911F910F91FF90EF9008955196BF
:101F7000ED91FC91529750968C915097982F909597
:101F80000FB75E962C915E97122F127021FD60950F
:101F9000F8942081112319F1282B2083E701219740
:101FA000F1F728E0462F50E0308160FF1AC0382B4F
:101FB0003083E7012197F1F7BA01759567952150B4
:101FC00089F7112381F08081892380830FBF5C967C
:101FD0008D919C910197F1F781E090E0C1CF292389
:101FE000DCCF3923E5CF9081892BEFCF2091BD0144
:101FF0003091BE012817390771F48091BC012091FE
:10200000BB0190E0805C9F4F821B910960E470E00F
:102010000E94BE2C089590E080E008952091BD01BB
:102020003091BE0128173907B9F49091BB01809116
:10203000BC01981789F0E091BB01F0E0EE58FE4F2B
:1020400080812091BB0130E02F5F3F4F2F733327FA
:102050002093BB0190E008958FEF9FEF08952091AA
:102060004F01260F3327331F21323105ECF4209125
:102070001D02FC0190E080E0243069F082E00895C8
:10208000A0914F012191AC01415D5E4FA40FB52F8E
:10209000B11D2C930196861798F380914F01680F1C
:1020A00060934F0180E0089581E0089510921D0231
:1020B00081E080931C021092F70161E082E10E94AE
:1020C0007C0D61E083E10E947C0DE9EBF0E0808112
:1020D0008E7F808380818D7F808388E48093B800A9
:1020E00085E48093BC000895CF93DF9391E09093B3
:1020F0002E018823B9F0C091B800D091BA00809128
:10210000BC008A7B8093BC0060E082E10E947C0D71
:1021100060E083E10E947C0D0E945610D093BA00CB
:10212000C093B800DF91CF9108958F929F92AF92A4
:10213000BF92CF92DF92EF92FF920F931F93CF93B4
:10214000DF93D0911603D13208F0D7C0182FC09179
:1021500044020E944A0E6B017C0180911D02811194
:102160006BC082E080931D0210931C028FEF80935E
:102170001B0210921A02D0931902A4E2B2E0E9EF16
:10218000F1E080E0D81391C01092F8018091F8013D
:10219000CC0FC82BC093F8018091F701813009F072
:1021A00088C01092F7010E944A0E6B017C01809159
:1021B000F8018093BB0080911F0290912002A091B2
:1021C0002102B0912202892B8A2B8B2BA1F00E9435
:1021D0004A0E00911F02109120022091210230919D
:1021E00022026C197D098E099F0906171707280717
:1021F000390708F442C08091BC0083FDD8CF85EC3C
:102200008093BC000E944A0E6B017C0180911D02EC
:10221000823009F450C080911B028F3F09F46FC0D7
:1022200080911B02803209F46CC080911B028033C4
:1022300009F469C084E026C080911F0290912002B9
:10224000A0912102B0912202892B8A2B8B2B09F4B9
:1022500084CF0E944A0E80901F0290902002A0908E
:102260002102B09022026C197D098E099F09861601
:102270009706A806B90608F070CF80911E020E944A
:10228000741085E010921703109216031092230227
:10229000DF91CF911F910F91FF90EF90DF90CF9042
:1022A000BF90AF909F908F9008959D9191938F5F75
:1022B00069CF85EEA5CF80911F0290912002A09159
:1022C0002102B0912202892B8A2B8B2B09F49ECFFD
:1022D0000E944A0E00911F021091200220912102BB
:1022E000309122026C197D098E099F090617170784
:1022F0002807390708F08ACFC0CF81E0C3CF80E03C
:10230000C1CF82E0BFCF83E0BDCFE09119038091C0
:102310001803E81730F4F0E0E154FE4F808190E0BC
:1023200008958FEF9FEF08959091190380911803FE
:102330002FEF3FEF981748F4E92FF0E0E154FE4FFC
:10234000208130E09F5F90931903C9010895CF92D7
:10235000DF92EF92FF920F931F93CF93DF937C0155
:10236000CB018A0120912302222389F0EB016B012A
:10237000C40ED51ECC15DD0569F06991D701ED912C
:10238000FC910190F081E02DC7010995F3CF642FF6
:102390000E942F10C801DF91CF911F910F91FF90E4
:1023A000EF90DF90CF900895CF93DF931F92CDB73A
:1023B000DEB76983209123022223F9F020911603CE
:1023C000203258F021E030E0FC013383228390E09A
:1023D00080E00F90DF91CF91089580911703E82F4F
:1023E000F0E0EC5DFD4F998190838F5F8093170340
:1023F0008093160381E090E0ECCF61E0CE0101967E
:102400000E942F10F7CF682F8AE193E00C94D4112B
:10241000EF92FF920F931F93CF93DF937B018A017B
:10242000E90121E02093230220E22093440210924C
:102430001703109216030E940312C7010E94031291
:10244000C8010E940312CE010E94031281E0DF91B5
:10245000CF911F910F91FF90EF900C94951090E009
:1024600080E00895AB0130E020E063E170E085EFAB
:1024700090E00C940812AB0130E020E062E170E0E3
:1024800082EF90E00C940812AB0130E020E061E1B3
:1024900070E081EF90E00C9408129B013327472FE6
:1024A00050E060E170E082EF90E00C9408129B0134
:1024B0003327472F50E06FE070E081EF90E00C94FD
:1024C0000812AB0130E020E06EE070E082EF90E0B7
:1024D0000C940812AB0130E020E06DE070E081EF79
:1024E00090E00C94081230E020E050E040E064E01E
:1024F00070E082EF90E00C94081230E020E050E0B1
:1025000040E062E070E082EF90E00C94081230E06E
:1025100020E050E040E063E070E081EF90E00C9458
:10252000081230E020E050E040E061E070E081EF30
:1025300090E00C94081263E58CE693E00E949A0FF9
:1025400060E58CE693E00C949A0F8F929F92AF9285
:10255000BF92EF92FF920F931F93CF93DF93EC0103
:102560007B018A01853B910508F4B6C088E691E0BD
:102570009C012C1B3D0BE901C73E3BE9D307C0F58D
:1025800061E070E08CE393E00E94441261E070E04F
:102590008CE393E00E943B1261E070E08CE393E0F7
:1025A0000E946A1261E070E08CE393E00E94611285
:1025B000BE0190E080E00E9412292EEB3FE94AE143
:1025C0005FE30E945F2B0E94D82B4B018CE393E0CA
:1025D0000E949112B4018CE393E00E9457128CE3A5
:1025E00093E00E947D12B4018CE393E00E944D12AF
:1025F000BE0190E080E00E94122926E636E646EE13
:102600005EE30E945F2B20E030E040E251E40E9454
:1026100073290E94D82B0E944E0F69E670E0EA945D
:10262000EF2811F06BE470E08CE393E00E9432122B
:1026300068EC70E080E090E00E944E0F61E070E096
:102640008CE393E00E94441261E070E08CE393E03D
:102650000E943B1261E070E08CE393E00E946A12FA
:1026600061E070E08CE393E00E9461128CE393E000
:102670000E948712B8018CE393E00E9457128CE30A
:1026800093E00E947D12B8018CE393E00E944D120A
:102690008AE0809FB001819F700D112490E080E05E
:1026A0000E9412292DEC3CEC4CE45FE30E945F2B6E
:1026B0000E94D82B0E944E0F6BE470E08CE393E0F5
:1026C000DF91CF911F910F91FF90EF90BF90AF904E
:1026D0009F908F900C94321261E070E08CE393E055
:1026E0000E94441261E070E08CE393E00E943B1290
:1026F00061E070E08CE393E00E946A1261E070E0B8
:102700008CE393E00E946112BE0190E080E00E94A1
:1027100012292EEB3FE94AE15FE30E945F2B0E9402
:10272000D82B4B018CE393E00E948712B4018CE319
:1027300093E00E9457128CE393E00E94731253CFF0
:10274000CF93DF93EC0188819981009711F00E946B
:102750007B2D198218821D821C821B821A82DF91B6
:10276000CF910895FC0180819181009711F00C9424
:102770007B2D08952F923F924F925F926F927F929E
:102780008F929F92AF92BF92CF92DF92EF92FF9281
:102790000F931F93CF93DF93CDB7DEB728970FB674
:1027A000F894DEBF0FBECDBF2CE1AC01249FC00169
:1027B000259F900D11249C01245E334F6CE373E040
:1027C0007A836983DB0170E060E0F90145915491FF
:1027D0005C834B83AB014F5F5F4FEB81FC81EF2B41
:1027E00091F0F9013296FC83EB8312966E307105FD
:1027F00051F0F90125913491BA0111963C932E9331
:102800002B813C81E2CF440F551FFA01E45CFC4F61
:1028100021E430E031832083312C212C18861F8263
:102820009C012E543F4F3E832D8389819A81FC0168
:1028300042815381440F551F440F551F4C5E544F26
:10284000FA0125913491FC0180819181BF016E5F75
:102850007F4F7A836983880F991F880F991F8C5E39
:10286000944FFC0165917491261B370BFA01329647
:1028700045915491FC01329685919491481B590BD6
:1028800080915E0390915F03289FF001299FF00DD6
:10289000389FF00D1124FC83EB83489F8001499FF2
:1028A000100D589F100D1124BF01FF0F880B990BBD
:1028B0000E9414296B017C01B801012E000C880BC9
:1028C000990B0E9414294B015C01A7019601C701D5
:1028D000B6010E9473292B013C01A5019401C50199
:1028E000B4010E9473299B01AC01C301B2010E9493
:1028F000C42A0E94412C2B013C012B813C811216E1
:10290000130614F517FF4EC0A7019601C501B401C7
:102910000E945F2B0E94302B20E030E044EB53E418
:102920000E9473292BED3FE049EC50E40E945F2B9D
:1029300020E030E044EB53E40E94C42A0E94D12BF3
:102940008B0118870F8349C04B815C81452BE9F0CF
:1029500017FFAAC0A7019601C501B4010E945F2B11
:102960000E94302B20E030E044EB53E40E947329B6
:102970002BED3FE049EC50E40E945F2B20E030E07B
:1029800044E353E40E94C42A24C0101611061CF428
:102990006AE570E020C017FF20C08EE091E09887C4
:1029A0008F831BC00115110561F2A7019601C501B6
:1029B000B4010E945F2B0E94302B20E030E044EBFA
:1029C00053E40E9473292BED3FE049EC50E40E9450
:1029D0005F2B0E94D12B78876F83E12CF12C21147F
:1029E000310451F0F101EE0FFF1F2D813E81E20F06
:1029F000F31F859194917C0100915C0310915D031C
:102A00004F8158854017510764F0C301B2010E94FD
:102A1000D82BAB01B7018F819885801B910B0E9449
:102A2000A51200915C0310915D036F81788560179A
:102A3000710784F4C301B2010E94D82B28E631E06B
:102A4000201B310BAB01B7018F819885820F931F3B
:102A50000E94A5128F81988590935D0380935C03FB
:102A60009FEF291A390AE981FA81808191818134A5
:102A7000910509F0DACE28960FB6F894DEBF0FBEA6
:102A8000CDBFDF91CF911F910F91FF90EF90DF901D
:102A9000CF90BF90AF909F908F907F906F905F90FE
:102AA0004F903F902F900895012B09F053CF24EBC6
:102AB00030E038872F8391CFEF92FF920F931F93CF
:102AC000CF93DF938C01DC011496ED90FC90D0E065
:102AD000C0E0CE15DF050CF09EC1F8018481958120
:102AE000C817D90730F40190F081E02D309709F034
:102AF0006FC01092F601E6EFF1E0E081E052EF35B1
:102B000008F06DC00E2E000CFF0BE757FA4E0C9428
:102B1000D22CEB15F115F415F715FA15FD15001665
:102B20000316061609160C160F1612161516181689
:102B30001B161E162116241627162A162D163016B9
:102B40003316361639163C163F16421645164816E9
:102B50004B164E165116541657165A165D16601619
:102B60006316661669166C166F1672167816751649
:102B70007B167E168116841687168A168D16901679
:102B80009316961699169C169F16A216A516A816A9
:102B9000AB16AE16B116B416B716BA16BD16C016D9
:102BA000C316C616C916CC16CF16D216D816D51609
:102BB000DB16DE16E116E416E716EA16ED16F01639
:102BC000F316F616F916FC16FF1602170517081766
:102BD000EC0FFD1F92CF90E080E00E94BA13219687
:102BE00078CF81E090E0F9CF82E090E0F6CF83E00B
:102BF00090E0F3CF84E090E0F0CF85E090E0EDCF7F
:102C000086E090E0EACF87E090E0E7CF88E090E0D0
:102C1000E4CF89E090E0E1CF8AE090E0DECF8BE086
:102C200090E0DBCF8CE090E0D8CF8DE090E0D5CF86
:102C30008EE090E0D2CF8FE090E0CFCF80E190E0C7
:102C4000CCCF81E190E0C9CF82E190E0C6CF83E1B3
:102C500090E0C3CF84E190E0C0CF85E190E0BDCFAC
:102C600086E190E0BACF87E190E0B7CF88E190E0CD
:102C7000B4CF89E190E0B1CF8AE190E0AECF8BE1B3
:102C800090E0ABCF8CE190E0A8CF8DE190E0A5CFB4
:102C90008EE190E0A2CF8FE190E09FCF80E290E0C4
:102CA0009CCF81E290E099CF82E290E096CF83E2E0
:102CB00090E093CF84E290E090CF85E290E08DCFDA
:102CC00086E290E08ACF87E290E087CF88E290E0CA
:102CD00084CF89E290E081CF8AE290E07ECF8BE2E0
:102CE00090E07BCF8CE290E078CF8DE290E075CFE2
:102CF0008EE290E072CF8FE290E06FCF80E390E0C1
:102D00006CCF81E390E069CF82E390E066CF83E30C
:102D100090E063CF84E390E060CF85E390E05DCF07
:102D200086E390E05ACF87E390E057CF88E390E0C6
:102D300054CF89E390E051CF8AE390E04ECF8BE30C
:102D400090E04BCF8CE390E048CF8DE390E045CF0F
:102D50008EE390E042CF8FE390E03FCF80E490E0BD
:102D60003CCF81E490E039CF82E490E036CF83E439
:102D700090E033CF84E490E030CF85E490E02DCF35
:102D800086E490E02ACF87E490E027CF88E490E0C3
:102D900024CF89E490E021CF8AE490E01ECF8BE439
:102DA00090E01BCF8CE490E018CF8DE490E015CF3D
:102DB0008EE490E012CF8FE490E00FCF80E590E0BA
:102DC0000CCF81E590E009CF82E590E006CF83E566
:102DD00090E003CF84E590E000CF85E590E0FDCE64
:102DE00086E590E0FACE87E590E0F7CE88E590E0C2
:102DF000F4CE89E590E0F1CE8AE590E0EECE8BE569
:102E000090E0EBCE8CE590E0E8CE8DE590E0E5CE6D
:102E10008EE590E0E2CEDF91CF911F910F91FF9070
:102E2000EF900895CF93DF93EC0163E58CE693E098
:102E30000E949A0FEAE2F1E0CE0164E670E00E949F
:102E4000BE2C605D60832AE030E0B9010E94BE2C98
:102E5000605D6183CE01B9010E94BE2C805D8283DA
:102E600043E050E0BF018CE693E00E94FD0C60E57A
:102E70008CE693E0DF91CF910C949A0F0F931F9300
:102E8000CF93DF93EC0188819981009759F02A81D3
:102E90003B812617370730F081E0DF91CF911F91FA
:102EA0000F9108958B016F5F7F4F0E94042E009752
:102EB00059F0998388831B830A832C813D81232BBE
:102EC00059F7FC011082E8CF80E0E7CFEF92FF9244
:102ED0000F931F93CF93DF93EC017B018A01BA011B
:102EE0000E943E1781110BC0CE010E94A013CE019B
:102EF000DF91CF911F910F91FF90EF9008951D8367
:102F00000C83B701888199810E94CA2EF0CFFC0101
:102F1000118210821382128215821482FB010190A9
:102F20000020E9F73197AF01461B570B0C94661749
:102F300085ED8093BC0080911F0290912002A091AA
:102F40002102B09122020796A11DB11D23E0B69582
:102F5000A795979587952A95D1F72091BC0024FDD8
:102F600003C010921D02089540911F02509120024B
:102F70006091210270912202452B462B472B69F369
:102F80000097A105B10541F025E32A95F1F700006E
:102F90000197A109B109E1CF80911E020C94741030
:102FA0001F920F920FB60F9211242F933F938F937E
:102FB0009F93AF93BF938091B3019091B401A0917F
:102FC000B501B091B6013091B20123E0230F2D3746
:102FD00058F50196A11DB11D2093B2018093B30154
:102FE0009093B401A093B501B093B6018091B7015D
:102FF0009091B801A091B901B091BA010196A11DBB
:10300000B11D8093B7019093B801A093B901B0931B
:10301000BA01BF91AF919F918F913F912F910F90E6
:103020000FBE0F901F90189526E8230F0296A11D42
:10303000B11DD2CF1F920F920FB60F9211242F9372
:103040003F934F935F936F937F938F939F93AF9330
:10305000BF93EF93FF93E091BD01F091BE013097D4
:1030600049F0A685B7858585968D91FF14C09C9102
:103070008923A1F4FF91EF91BF91AF919F918F911F
:103080007F916F915F914F913F912F910F900FBE64
:103090000F901F9018959C91892361F7A389B4899B
:1030A0009C918589809589238C938689978901973E
:1030B000F1F7608D718DA685B785558538E020E0E4
:1030C000CB010197F1F7822F90E095958795282FF6
:1030D0004C91452309F02068315091F7868D81FD90
:1030E00020958091BC0190E001968F7399273091D3
:1030F000BB01381799F0A091BC01B0E0AE58BE4FAB
:103100002C938093BC01828D938D0197F1F7A38955
:10311000B4898C919589892B8C93ACCF868D8160F5
:10312000868FF1CF1F920F920FB60F9211242F931B
:103130003F934F935F936F937F938F939F93AF933F
:10314000BF93EF93FF938091B900887F803609F495
:103150004AC0F0F5883209F4A7C018F5803109F4A7
:103160009BC0B8F4882309F4F9C0883009F494C0EE
:10317000FF91EF91BF91AF919F918F917F916F914F
:103180005F914F913F912F910F900FBE0F901F9025
:103190001895883109F488C0803251F780931B025A
:1031A00014C0803409F49DC040F48033B9F38833EF
:1031B000F9F680931B0285ECB0C0803509F485C018
:1031C000883509F496C0883499F60E949817D0CFB4
:1031D000883909F48CC038F5883729F050F48836DE
:1031E00011F0803729F683E080931D02109271015F
:1031F00057C0883809F47BC0803919F0803809F04D
:10320000B7CF80917101803208F071C0E0917101F7
:1032100081E08E0F809371018091BB00F0E0EF5A46
:10322000FE4F80833DC0803B39F0E0F4803A09F4E2
:1032300079C0883A09F09CCF84E080931D021092F7
:10324000500110924F01E0911403F091150309957C
:1032500080914F0181110FC081E080934F01109246
:103260002F0109C0803C09F4A6CF883C09F4A3CF04
:10327000883B09F07DCFE091500181E08E0F809373
:103280005001F0E0E15DFE4F80818093BB009091A2
:10329000500180914F0129C08091F8018093BB00BB
:1032A00085EC8093BC0064CF90911A028091190242
:1032B000981758F5E0911A0281E08E0F80931A0258
:1032C000F0E0E750FE4F8081E9CFE0911A0281E003
:1032D0008E0F80931A028091BB00F0E0E750FE4F02
:1032E000808390911A02809119029817C8F285E89C
:1032F000D8CFE0911A0281E08E0F80931A0280915C
:10330000BB00F0E0E750FE4F808380911C028111EA
:103310005CCF81E08093F70184EA8093BC00109237
:103320001D0226CF85EC8093BC0010921D02809177
:103330007101803230F4E0917101F0E0EF5AFE4FFC
:1033400010826091710170E0E0911203F09113031B
:1033500081E591E00995109271010ACF10921B024C
:1033600034CF1F920F920FB60F9211242F933F93D9
:103370004F935F936F937F938F939F93AF93BF937D
:10338000EF93FF93809145020E94530D20914702D5
:10339000309148022F5F3F4F3093480220934702FD
:1033A00090911103943618F095E090934602909115
:1033B0004602933009F443C098F49230C9F0FF916B
:1033C000EF91BF91AF919F918F917F916F915F919D
:1033D0004F913F912F910F900FBE0F901F90189516
:1033E000943009F447C0953051F7882351F0E7CF66
:1033F0008111E5CF80914702909148028436910572
:1034000028F41092480210924702D9CF109211036B
:10341000E091110381E08E0F80931103F0E0809121
:10342000470290914802EE0FFF1FE75BFD4F91832B
:103430008083109248021092470283E018C08130C6
:1034400009F0BDCFE09111038E0F80931103F0E0DE
:103450008091470290914802EE0FFF1FE75BFD4FFE
:1034600091838083109248021092470284E08093F7
:103470004602A5CF882361F28091470290914802CD
:103480008536910508F49BCF85E0F1CF10921D039E
:1034900010921C0388EE93E0A0E0B0E080931E033E
:1034A00090931F03A0932003B09321032AE031E0FF
:1034B00030931B0320931A0310926F0310926E0334
:1034C0008093700390937103A0937203B09373037E
:1034D0008CE191E090936D0380936C0310928303D1
:1034E0001092820310928503109284031092870336
:1034F00010928603109289031092880360918A03C8
:103500006E7F6D7F60938A036695617081E06827A6
:1035100087E00E947C0D61E087E00E94AA0DEFEA3F
:10352000F6E1E491E0937C03EBE9F6E1E491F0E06D
:10353000EE0FFF1FE657F94E8591949190937E030D
:1035400080937D0360E088E00E94AA0D80918A0349
:1035500081FD04C061E088E00E947C0D88E08093DA
:103560007803E0EBF6E1E491E0937903ECE9F6E12E
:10357000E491F0E0EE0FFF1FE058F94E8591949131
:1035800090937B0380937A036DE271E086E693E08B
:103590000E9487176DE271E080E693E00E94871732
:1035A0001092190310921803109217031092160329
:1035B0000E9456108AE89BE09093150380931403B1
:1035C0008BE89BE0909313038093120361E085E006
:1035D0000E94AA0D61E086E00E94AA0D60E085E0ED
:1035E0000E947C0D60E086E00E947C0DEEE3F3E03B
:1035F0008EE1DF011D928A95E9F781E090E09093DA
:103600003D0380933C0310925D0310925C03909302
:103610005F0380935E030E94561061E085E00E9484
:10362000AA0D61E086E00E94AA0D60E085E00E949C
:103630007C0D60E086E00E947C0D60E084E10E94E9
:10364000AA0D60E085E10E94AA0D60E08AE00E9478
:10365000AA0D60E089E00E94AA0D83E080934502F4
:103660001092270310922E03109235031092360306
:10367000109237031092380381E0809334038093D3
:1036800031031092320392E0909333038093260328
:103690008CE090E090932B0380932A030E94DF2C10
:1036A0009093300380932F03009789F12CE0FC0165
:1036B00011922A95E9F784E090E090932903809392
:1036C000280384E090E090932D0380932C03809155
:1036D0002703882341F061E084E00E94AA0D60E0A6
:1036E00084E00E947C0DE8E9F6E1E491F0E0EE0F61
:1036F000FF1FE657F94E8591949190933A0380937A
:103700003903ECEAF6E1E491E0933B03089510926B
:103710002B0310922A031092290310922803D1CF71
:10372000CF93DF93CDB7DEB764970FB6F894DEBFC3
:103730000FBECDBF789484B5826084BD84B58160AE
:1037400084BD85B5826085BD85B5816085BD80916C
:103750006E00816080936E001092810080918100E4
:1037600082608093810080918100816080938100DC
:10377000809180008160809380008091B10084609E
:103780008093B1008091B00081608093B0008091FF
:103790007A00846080937A0080917A0082608093BE
:1037A0007A0080917A00816080937A0080917A001B
:1037B000806880937A001092C10010928703109263
:1037C0008603109285031092840310928303109253
:1037D00082038DE991E0909389038093880390910F
:1037E0007803963108F047C02DEB30E03093830327
:1037F000209382032BE931E03093850320938403E7
:103800002CE231E0309387032093860320916800F7
:1038100084E0983048F031E09E3008F430E081E0F8
:1038200001C0880F3A95EAF7822B809368002DE655
:1038300030E0983050F02BE630E09E3030F02CE64F
:1038400030E0963110F030E020E030938003209398
:103850007F03292F30E0983008F0A4C181E001C037
:10386000880F9A95EAF7809381038091880390915D
:1038700089030197F1F78091860390918703892B43
:1038800049F1E091BD01F091BE0123E0EC36F20771
:1038900009F1309739F0A389B4899C918589809585
:1038A00089238C9380918A038E7F80938A03109260
:1038B000BC011092BB018CE693E09093BE01809313
:1038C000BD01E0917F03F09180038081909181039D
:1038D000892B808364E670E086E693E00E943E17C1
:1038E00064E670E080E693E00E943E17F89482E080
:1038F0008093B0008093B10094E69093B30010924F
:10390000B200809370007894809346021092110365
:103910008091450260E00E94AA0D30E020E050E076
:1039200040E070E060E086EF90E00E94081264E6FC
:1039300070E080E090E00E944E0F80912C03909107
:103940002D0397FD08C061E00E94AA0D60E0809100
:103950002C030E947C0D81E08093270384E60E9463
:103960008C0B30E020E050E040E067E070E085EF55
:1039700090E00E9408126BE470E08CE393E00E94F8
:103980003212332433948CE693E00E94F60F8C01BC
:10399000892B09F431C18091E901811114C0109281
:1039A000E0011092DF011092E2011092E101109209
:1039B000E4011092E3011092E6011092E5011092E9
:1039C000E8011092E7018CE693E00E940E10F82EB9
:1039D00089831A8200916A0310916B030F5F1F4F56
:1039E000B80186E693E00E943E17882399F0209163
:1039F00066033091670380916A0390916B03BE0167
:103A00006F5F7F4F820F931F0E94CA2E10936B032C
:103A100000936A0330E5F312B6CF00916A03109168
:103A20006B030115110531F0E0916603F091670316
:103A3000309721F41092F601E6EFF1E080818335B2
:103A400009F0D1C001501109CC24C394D12C011527
:103A5000110519F0680101E010E018861F821A862E
:103A600019861C861B8650E040E06DE271E0CE01B5
:103A700007960E946617E0906A03F0906B030E159C
:103A80001F0550F5CE14DF0408F47601E0916603BB
:103A9000F0916703EE0DFF1DD080108260916603E8
:103AA00070916703600F711F6115710509F487C07C
:103AB000FB0101900020E9F73197AF01461B570B3E
:103AC000CE0107960E946617809166039091670366
:103AD000E80EF91EF701D0828B859C8563E070E0CB
:103AE0000E94AA2C3B013FED432E31E0532E10E003
:103AF00000E0B12CA12CA614B7040CF06EC0FFEFAF
:103B0000AF1ABF0A680123E0C20ED11C4601C016DD
:103B1000D10610F0480186011A8219821C821B828C
:103B20001E821D8250E040E06DE271E0CE01019600
:103B30000E946617EB84FC848E149F0418F50E1502
:103B40001F0508F47801EF81F885EE0DFF1D108147
:103B500010826F817885680D791D61157105A1F15D
:103B6000FB0101900020E9F73197AF01461B570B8D
:103B7000CE0101960E9466178F819885E80EF91E86
:103B8000F701108389819A81009719F10E94D12849
:103B9000F201619371932F01CE0101960E94B2133D
:103BA0008601A9CF9E3040F42850310981E001C040
:103BB000880F2A95EAF757CE2E503109F7CFCE015C
:103BC00007960E94A01380CFCE0101960E94A013F9
:103BD000D3CF60E070E0CB01DBCFCE0107960E942F
:103BE000B2133092E90150E040E06DE271E086E608
:103BF00093E00E946617C7CE89E492E09093F301A8
:103C00008093F2018091110390E09093F5018093ED
:103C1000F401809146028530C9F580914B02909164
:103C20004C02885891098D35910508F084C0809127
:103C30001103843009F053C080914D0290914E02DF
:103C40008097479708F04BC080914F0290915002A7
:103C50000997099708F043C01092F1011092F00102
:103C60008FEF9FEFDC018093EC019093ED01A09327
:103C7000EE01B093EF0121E030E03093EB012093AF
:103C8000EA0182E080934602109211038091E901DB
:103C9000882309F403C3E091DF01F091E001E456C9
:103CA000F109E631F10508F0F7C2E75AF14E0C943C
:103CB000D22CE4205621BF21C4220E23D92059231F
:103CC0008223A923BA23BC23C123C3232824A524E8
:103CD000F22431257025B225F4252B261328809156
:103CE0001103843440F180914D0290914E02825430
:103CF00091098E9700F590E080E040E050E0BA0135
:103D0000FC01E15BFD4F20813181295031092930CF
:103D1000310588F4FC01EF5AFD4F20813181265195
:103D200031092131310528F12081318126503109B5
:103D300027303105E8F1809111038A3108F46DC014
:103D40008091490290914A02843F9140B0F51092CF
:103D5000F1011092F0018FEF9FEFDC018093EC01F5
:103D60009093ED01A093EE01B093EF0182E090E01B
:103D70001AC0440F551F661F771F41600496803894
:103D8000910509F0BDCF80E290E09093F10180931E
:103D9000F0014093EC015093ED016093EE017093BC
:103DA000EF0181E090E09093EB018093EA0169CF0D
:103DB000440F551F661F771FE1CF80914B029091F2
:103DC0004C0285974B9748F5E5E4F2E082E090E0FD
:103DD00040E050E0BA01A09111039C012F5F3F4FDA
:103DE000A217130609F00CF485C0208531852750F1
:103DF00031092730310508F07DC0228533852351F4
:103E000031092F30310508F468C0228533852A50E6
:103E100031092930310508F468C0809111038D30D3
:103E200008F497C021E030E038872F831A82198286
:103E300049E753E0BE016F5F7F4FCE0107960E94B6
:103E4000890C892B09F085C049E753E0BE016F5FFB
:103E50007F4FCE0107960E94890C019709F079C027
:103E600049E753E0BE016F5F7F4FCE0107960E9486
:103E7000890C7C01892B09F06CC0812C912C540198
:103E8000209111038F8198852817190609F00CF4E9
:103E900051C049E753E0BE016F5F7F4FCE010796E7
:103EA0000E94890C6C0149E753E0BE016F5F7F4FB0
:103EB000CE0107960E94890C31E0C316D10489F522
:103EC000892B09F046C0880C991CAA1CBB1C68945D
:103ED00080F84FEFE41AF40AD3CF440F551F661F42
:103EE000771F41600296349676CF440F551F661FA8
:103EF000771FF8CF0197959587959093F10180935F
:103F0000F0010C972CF41092F1011092F00185CF82
:103F10004093EC015093ED016093EE017093EF013B
:103F200025CFCD28B1F40197A1F4880C991CAA1CC7
:103F3000BB1CCFCFF092F101E092F0018092EC0136
:103F40009092ED01A092EE01B092EF0183E090E03B
:103F50002ACF8091F4019091F501181619060CF002
:103F600086C0E1E0F0E0F887EF83E091F201F091A4
:103F7000F3018281938189974E9708F078C082E09F
:103F800090E098878F83848195810B970A9708F03A
:103F90006EC023E030E038872F831A8219824CEB01
:103FA00051E0BE016F5F7F4FCE0107960E94890CE2
:103FB0007C01892B09F05BC04CEB51E0BE016F5FC7
:103FC0007F4FCE0107960E94890C019709F04FC0E0
:103FD000412C512C32012091F4013091F5018F8157
:103FE0009885821793070CF0D5C04CEB51E0BE01C9
:103FF0006F5F7F4FCE0107960E94890C5C0133E012
:10400000E316F10441F14CEB51E0BE016F5F7F4FCD
:10401000CE0107960E94890C6C0143E0E416F1047E
:1040200061F44CEB51E0BE016F5F7F4FCE0107960C
:104030000E94890CC816D906D1F4A114B10409F460
:104040009BC0AA94AB2899F4CD2889F4440C551C44
:10405000661C771C9BC04CEB51E0BE016F5F7F4F2D
:10406000CE0107960E94890CA816B90661F220912C
:10407000F4013091F501388B2F87263031050CF48F
:1040800000CE2090F2013090F30132E0230E311C7B
:1040900083E090E09E878D87F5ECCF2EFDE9DF2E43
:1040A000FCE1EF2EF1E8FF2EF10164817581A08023
:1040B000B18090E080E00E9412292B013C01B50103
:1040C00090E080E00E9412294B015C012DEC3CEC59
:1040D0004CE45FE30E9473299B01AC01C301B20170
:1040E0000E940D29F0E0E0E087FD14C02DEC3CECCF
:1040F0004CE45FE3C301B2010E9473299B01AC0150
:10410000C501B4010E940D29E2E0F0E087FD02C084
:10411000E1E0F0E0A701960163E971E080E091E061
:104120000E949A2C6F01FF0FEE08FF08C626D726C3
:10413000E826F9262D853E852F5F3F4F3E872D8748
:1041400032E0230E311C8D859E85EF85F8898E1710
:104150009F0709F0A9CFC092EC01D092ED01E09247
:10416000EE01F092EF0180E290E09093F1018093F4
:10417000F0018FEF9FEF17CECA94CD2809F077CFCB
:10418000440C551C661C771C689440F8EFEFEE1A3F
:10419000FE0A21CFF092F101E092F0014092EC0191
:1041A0005092ED016092EE017092EF0184E090E098
:1041B000FACD30E020E050E040E070E060E086EFD3
:1041C00090E00E94081266C00091E1011091E201A6
:1041D00061E070E00936110529F00A361105A1F4F5
:1041E00062E070E08CE393E00E9444120E949B1214
:1041F0006091E3017091E4010537110571F48CE3DE
:1042000093E00E94571246C005361105E9F48CE38D
:1042100093E00E9491120E949B120B361105E9F463
:104220002091E3013091E40188EE93E0289FB001F2
:10423000299F700D389F700D11248091E501909198
:10424000E601680F791FDBCF06361105B9F48CE360
:1042500093E00E9487120E949B1270E060E00C368F
:104260001105A1F00D361105B9F430E020E050E061
:1042700040E067E170E081EF90E0A3CF04371105E3
:1042800009F0B6CF6091E3017091E4018CE393E013
:104290000E946A120E949B121092E90180E090E055
:1042A000892B09F46ECB0E9400006BCB0091E101D9
:1042B0001091E20161E070E00936110529F00A363B
:1042C0001105A1F462E070E08CE393E00E943B12E0
:1042D0000E949B126091E3017091E4010537110582
:1042E00071F48CE393E00E944D12D4CF0536110592
:1042F000E9F48CE393E00E947D120E949B120B363E
:104300001105E9F42091E3013091E40188EE93E096
:10431000289FB001299F700D389F700D1124809146
:10432000E5019091E601680F791FDBCF0636110594
:1043300061F48CE393E00E9473120E949B120C368E
:10434000110581F470E060E008C06091E3017091B4
:10435000E4010437110509F0BDCF8CE393E00E941E
:10436000611298CF0D36110509F096CF30E020E0AC
:1043700050E040E068E170E082EF90E022CF809171
:10438000E1019091E2018736910549F430E020E0A7
:1043900050E040E065E070E083EF90E012CF8836B7
:1043A000910539F430E020E050E040E068E070E052
:1043B000F3CF8B36910509F06FCF81E08093230214
:1043C00080E280934402109217031092160383EF49
:1043D00090E00E9403128BE090E00E94031290E0B4
:1043E00080E00E94031290E080E00E94031281E0CE
:1043F0000E9495100E944A0E6B017C0180911D0263
:10440000811164C081E080931D0280931C029FEFA4
:1044100090931B0210921A02109219028093F801D5
:104420008091F80180648093F8018091F7018130D8
:1044300009F081C01092F7010E944A0E6B017C01C5
:104440008091F8018093BB0080911F02909120021F
:10445000A0912102B0912202892B8A2B8B2BA1F0F3
:104460000E944A0E00911F02109120022091210209
:10447000309122026C197D098E099F0906171707D2
:104480002807390708F443C08091BC0083FDD8CFCA
:1044900085EC8093BC000E944A0E6B017C018091E8
:1044A0001D02813009F449C080911A0211E0811186
:1044B00002C010911A02A9EFB1E0EFEBF1E080E049
:1044C000811751F19D9191938F5FFACF80911F02D7
:1044D00090912002A0912102B0912202892B8A2B77
:1044E0008B2B09F48BCF0E944A0E00911F02109172
:1044F000200220912102309122026C197D098E093F
:104500009F09061717072807390708F077CF80910A
:104510001E020E94741010E01092190310931803E9
:1045200080911903181759F18AE193E00E949411C0
:104530009C8B8B8BF5CF85EEACCF80911F02909139
:104540002002A0912102B0912202892B8A2B8B2B71
:1045500009F4A5CF0E944A0E00911F02109120027B
:1045600020912102309122026C197D098E099F0948
:10457000061717072807390708F091CFC8CF8B898E
:104580009C890E94121788CE8091E1019091E201EE
:104590008736910549F430E020E050E040E066E0E5
:1045A00070E084EF90E00DCE8836910539F430E06C
:1045B00020E050E040E069E070E0F3CF86379105FD
:1045C000E1F4F091E301FA8B198A8091E501909171
:1045D000E60129893A89820F931F9C0124513109F0
:1045E000253D334008F056CE9C013327592F550FF7
:1045F000550B492F6CE070E0D4CF8737910509F057
:104600004BCE4091E3015091E40130E020E066E1BF
:1046100070E04A30510508F03DCEC3CF8091E101F2
:104620009091E2018736910549F430E020E050E0B6
:1046300040E067E070E085EF90E0C3CD88369105FB
:1046400039F430E020E050E040E06AE070E0F3CF81
:104650008837910569F46091E3017091E401653B4D
:10466000710508F017CE8CE393E00E94321212CE4F
:104670008937910569F44091E3015091E40130E0FC
:1046800020E064E170E0453B510508F003CED3CF54
:104690008A37910509F000CE4091E3015091E40181
:1046A000453B510508F0F6CD30E020E065E170E0D3
:1046B000C2CF8091E1019091E2016FEF70E0873607
:1046C0009105E1F070E060E088369105B9F083383B
:1046D000910509F0E1CD2091E3013091E401AFEFC4
:1046E000B0E00E94B42A24EB30E040E050E00E94A9
:1046F000312A3093E4012093E301B90185E00E945F
:10470000DB0DC8CD8091E1019091E2016FEF70E087
:1047100087369105E1F070E060E088369105B9F0E8
:104720008338910509F0B8CD2091E3013091E4017F
:10473000AFEFB0E00E94B42A24EB30E040E050E05C
:104740000E94312A3093E4012093E301B90186E00D
:10475000D6CF84E10E94380E2FEF30E0DC010E94BA
:10476000D82C2FEF33E040E050E00E94312A822F16
:1047700090E007CF85E1EECF8AE00E94530D9927A4
:1047800000CF89E0FACF8091E1019091E2018F376B
:10479000910529F48091E3010E948C0B7BCD8B372E
:1047A0009105B1F48091E3014091E50150E070E0A2
:1047B00060E0762F652F542F4427682B8091E70106
:1047C000482B90E080E00E94CD0B0E946F0E62CDDE
:1047D0008C37910591F48091E3014091E50150E01F
:1047E00070E060E0762F652F542F4427682B80916E
:1047F000E701482B81E090E0E6CF8D37910591F4F9
:104800008091E3014091E50150E070E060E0762F97
:10481000652F542F4427682B8091E701482B82E0B5
:1048200090E0D1CF8E37910509F036CD8091E3012C
:104830004091E50150E070E060E0762F652F542F45
:104840004427682B8091E701482B83E090E0BBCFA1
:104850008091E1019091E2018338910501F581E1B8
:104860000E94380EBC01990F880B990B0E941429E5
:104870002EE230E940EA5BE30E94732920E030E059
:1048800040E351E40E94732920E030E040E251E42B
:104890000E9473290E94D12BCB010E941217809194
:1048A000E1019091E2018438910509F0F5CC81E1B4
:1048B0000E94380EBC01990F880B990B0E94142995
:1048C0002EE230E940EA5BE30E9473296B017C0130
:1048D00027EC3BE447E15FE30E940D2987FD33C0ED
:1048E0002DEC3CEC4CE45FE3C701B6010E942E2C9A
:1048F0000FEF1FEF18163CF128EF33E543E45FE3B9
:10490000C701B6010E942E2C04E610E01816DCF058
:1049100020E030E04AE754E4C701B6010E94732961
:104920000E94D12B9B01AC012F5432404109510907
:10493000A4E6B0E00E94502A2CEA30E040E050E0CB
:104940000E94312A8901C8011CCE8091E101909119
:10495000E20160E08538910521F08638910531F556
:1049600061E08EE00E94AA0D0E949B128091E101FD
:104970009091E2018038910509F08ECC8091E3019D
:104980009091E4018338910509F086CC8EE00E9475
:10499000380E2FEF30E0DC010E94D82C2FEF33E0EF
:1049A00040E050E00E94312AC901EBCD81389105E9
:1049B00009F07CC38091E3019091E4018238910574
:1049C00009F06ACC8091E5019091E60160E08436BF
:1049D000910521F08536910539F661E08EE00E945F
:1049E0007C0DC2CF8091E1019091E20160E08538B9
:1049F000910521F086389105C1F461E08FE00E94B5
:104A0000AA0D0E949B128091E1019091E2018038F1
:104A1000910509F041CC8091E3019091E401833844
:104A2000910509F039CC8FE0B2CF8138910509F0BA
:104A30004FC38091E3019091E4018238910509F020
:104A40002BCC8091E5019091E60160E084369105E0
:104A500021F085369105A9F661E08FE00E947C0D7A
:104A6000D0CF8091E1019091E20160E0853891051D
:104A700021F086389105C1F461E080E10E94AA0D21
:104A80000E949B128091E1019091E2018038910592
:104A900009F002CC8091E3019091E4018338910503
:104AA00009F0FACB80E173CF8138910509F022C378
:104AB0008091E3019091E4018238910509F0ECCBFB
:104AC0008091E5019091E60160E08436910521F046
:104AD00085369105A9F661E080E10E947C0DD0CF7A
:104AE0008091E1019091E20160E08538910521F02B
:104AF00086389105E1F461E08BE00E94AA0D0E94E6
:104B00009B128091E1019091E2018138910509F0B9
:104B1000C3CB8091E3019091E4018338910509F0C2
:104B2000BBCB6091E5017091E6018BE0E8CD813867
:104B3000910509F0F1C28091E3019091E40182387E
:104B4000910539F78091E5019091E60160E08436A6
:104B5000910521F08536910591F661E08BE00E9488
:104B60007C0DCDCF8091E1019091E20185389105D6
:104B700029F460E08CE00E94AA0D8CCB8638910568
:104B800039F40E949B1261E08CE00E94AA0D84CB54
:104B900081389105C9F48091E3019091E401823854
:104BA000910509F079CB8091E5019091E60160E0F3
:104BB0008436910529F08536910509F06BCB61E0CB
:104BC0008CE00E947C0D66CB8038910509F064CBA7
:104BD0008091E3019091E4018238910509F05CCB6A
:104BE0008CE00E94530DCDCC8091E1019091E201C7
:104BF00060E08538910521F08638910519F461E06F
:104C00008DE0B9CF81389105C1F48091E301909195
:104C1000E4018238910509F03FCB8091E501909144
:104C2000E6018436910519F460E08DE0CACF61E0B9
:104C30008536910509F02ECBF8CF8038910509F023
:104C40002BCB8091E3019091E4018238910509F02A
:104C500023CB8DE0C6CF0091E1011091E2010C362B
:104C60001105E9F530E020E050E040E06DE070E053
:104C700081EF90E00E94081230E020E050E040E038
:104C80006EE070E082EF90E00E9408120E949B129A
:104C90000137110509F05FC00091E3011091E401B3
:104CA00062E070E08CE393E00E94441262E070E006
:104CB0008CE393E00E943B12B8018CE393E00E94E6
:104CC0006A12B8018CE393E00E9461128CE393E0D6
:104CD0000E9487128CE393E00E947312DBCA0D36A8
:104CE000110589F430E020E050E040E067E170E039
:104CF00081EF90E00E94081230E020E050E040E0B8
:104D000068E170E0BFCF0E36110509F077C0E09082
:104D1000E301F090E40162E070E08CE393E00E9434
:104D2000441262E070E08CE393E00E943B12B70112
:104D30008CE393E00E946A12B7018CE393E00E9437
:104D400061128CE393E00E9487128CE393E00E944F
:104D50007D120E949B120237110509F077C0209145
:104D6000E3013091E40188EE93E0289F8001299FC0
:104D7000100D389F100D11246091E5017091E6012E
:104D8000060F171F003A82E8180708F083CAE09060
:104D9000E701F090E80161E070E08CE393E00E94AD
:104DA000441261E070E08CE393E00E943B12B70193
:104DB0008CE393E00E946A12B7018CE393E00E94B7
:104DC0006112B80190E080E00E9412292EEB3FE9C9
:104DD00042E05FE30E945F2B0E94D82B6B018CE3C3
:104DE00093E00E948712B6018CE393E00E94571271
:104DF0008CE393E00E947D12B60173CA0F36110551
:104E000009F076C0E090E301F090E40162E070E028
:104E10008CE393E00E94441262E070E08CE393E044
:104E20000E943B12B7018CE393E00E946A12B70123
:104E30008CE393E00E9461128CE393E00E94911254
:104E40008CE393E00E9473120E949B1203371105BA
:104E500009F0B0C02091E3013091E40188EE93E0C5
:104E6000289F8001299F100D389F100D11246091FB
:104E7000E5017091E601060F171F003A92E8190745
:104E800008F008CAE090E701F090E80161E070E006
:104E90008CE393E00E94441261E070E08CE393E0C5
:104EA0000E943B12B7018CE393E00E946A12B701A3
:104EB0008CE393E00E946112B80190E080E00E94D0
:104EC00012292EEB3FE942E05FE30E945F2B0E9434
:104ED000D82B6B018CE393E00E949112B6018CE316
:104EE00093E00E9457128CE393E00E94731284CFE8
:104EF0000037110509F0CCCEE090E301F090E40119
:104F000062E070E08CE393E00E94441262E070E0A3
:104F10008CE393E00E943B12B7018CE393E00E9484
:104F20006A12B7018CE393E00E9461128CE393E074
:104F30000E9491128CE393E00E947D120E949B12CA
:104F40000636110509F0A8C90091E3011091E401AA
:104F5000073EFBE91F0708F09DC9E090E501F090CE
:104F6000E60161E070E08CE393E00E94441261E0AE
:104F700070E08CE393E00E943B12B7018CE393E076
:104F80000E946A12B7018CE393E00E946112B8019B
:104F900090E080E00E9412292EEB3FE94AE15FE3B6
:104FA0000E945F2B0E94D82B6B018CE393E00E9440
:104FB000911219CF0536110519F60091E3011091F0
:104FC000E401073EEBE91E0708F064C9E090E50143
:104FD000F090E60161E070E08CE393E00E944412FF
:104FE00061E070E08CE393E00E943B12B7018CE338
:104FF00093E00E946A12B7018CE393E00E94611271
:10500000B80190E080E00E9412292EEB3FE94AE1CE
:105010005FE30E945F2B0E94D82B6B018CE393E02F
:105020000E9487125BCF8091E1019091E2019C0187
:10503000215031092930310520F490935F0380938A
:105040005E036CE271E0CE0107960E9487178091A3
:10505000E3012B853C85232B21F0EF81F8853097E8
:1050600021F41092F601E6EFF1E080831A821982B2
:105070001C821B821E821D826F81788561157105DD
:1050800031F04B855C85CE0101960E946617CE01FA
:1050900001960E945C15CE0101960E94B2130E94F7
:1050A0009B12CE0107960E94B213F6C88038910574
:1050B00009F0F2C88091E3019091E40182389105F2
:1050C00009F054CC8EE00E94530D0E9412174ECC72
:1050D0008038910509F0E0C88091E3019091E401E6
:1050E0008238910509F08FCC8FE00E94530D0E9409
:1050F000121789CC8038910509F0CEC88091E30160
:105100009091E4018238910509F0BCCC80E10E94C5
:10511000530D0E941217B6CC8038910509F0BCC817
:105120008091E3019091E4018238910509F0E9CC86
:105130008BE00E94530D0E941217E3CC80912F0345
:10514000909130030E947B2D80912C0390912D0330
:1051500097FD03C060E00E94AA0D80E693E00E94E4
:10516000B21386E693E00E94B2138CE191E0909333
:105170006D0380936C038091BD019091BE018C56AC
:10518000934071F4E0917F03F091800390818091CE
:1051900081038095892380831092BE011092BD0106
:1051A00008951F93FC0199278827BC01E894119169
:1051B0001032E9F3193010F01E30C8F31B3251F0F1
:1051C0001D3249F4689406C00E94F828610F711DD1
:1051D000811D911D119110531A30B0F33EF490953A
:1051E0008095709561957F4F8F4F9F4F1F910895C8
:1051F000592F482F372F262F660F771F881F991F8B
:10520000660F771F881F991F620F731F841F951FDA
:10521000660F771F881F991F08950E944F2908F471
:1052200081E00895E89409C097FB3EF4909580953D
:10523000709561957F4F8F4F9F4F9923A9F0F92F5C
:1052400096E9BB279395F695879577956795B795DA
:10525000F111F8CFFAF4BB0F11F460FF1BC06F5FC0
:105260007F4F8F4F9F4F16C0882311F096E911C0D2
:10527000772321F09EE8872F762F05C0662371F0F3
:1052800096E8862F70E060E02AF09A95660F771F07
:10529000881FDAF7880F9695879597F90895990FE3
:1052A0000008550FAA0BE0E8FEEF16161706E807F0
:1052B000F907C0F012161306E407F50798F0621B11
:1052C000730B840B950B39F40A2661F0232B242BE6
:1052D000252B21F408950A2609F4A140A6958FEF05
:1052E000811D811D08950E9486290C94F7290E9432
:1052F000E92938F00E94F02920F0952311F00C9450
:10530000E0290C94E62911240C942B2A0E94082AE7
:1053100070F3959FC1F3950F50E0551F629FF00108
:10532000729FBB27F00DB11D639FAA27F00DB11D21
:10533000AA1F649F6627B00DA11D661F829F2227AA
:10534000B00DA11D621F739FB00DA11D621F839F31
:10535000A00D611D221F749F3327A00D611D231F07
:10536000849F600D211D822F762F6A2F11249F5755
:1053700050409AF0F1F088234AF0EE0FFF1FBB1F58
:10538000661F771F881F91505040A9F79E3F510517
:1053900080F00C94E0290C942B2A5F3FE4F3983EB4
:1053A000D4F3869577956795B795F795E7959F5FC1
:1053B000C1F7FE2B880F911D9695879597F9089553
:1053C00097F99F6780E870E060E008959FEF80ECB8
:1053D000089500240A94161617061806090608955B
:1053E00000240A9412161306140605060895092EC1
:1053F0000394000C11F4882352F0BB0F40F4BF2B30
:1054000011F460FF04C06F5F7F4F8F4F9F4F08956F
:1054100057FD9058440F551F59F05F3F71F0479565
:10542000880F97FB991F61F09F3F79F0879508954A
:10543000121613061406551FF2CF4695F1DF08C069
:10544000161617061806991FF1CF86957105610586
:1054500008940895E894BB2766277727CB0197F92E
:105460000895052E97FB1EF400940E94482A57FDCC
:1054700007D00E94922A07FC03D04EF40C94482ACD
:1054800050954095309521953F4F4F4F5F4F089570
:1054900090958095709561957F4F8F4F9F4F0895A0
:1054A0000E94B42AA59F900DB49F900DA49F800DDB
:1054B000911D112408952F923F924F925F926F9207
:1054C0007F928F929F92AF92BF92CF92DF92EF9294
:1054D000FF920F931F93CF93DF93CDB7DEB7CA1B15
:1054E000DB0B0FB6F894DEBF0FBECDBF09942A8840
:1054F000398848885F846E847D848C849B84AA84E8
:10550000B984C884DF80EE80FD800C811B81AA8174
:10551000B981CE0FD11D0FB6F894DEBF0FBECDBF3F
:10552000ED010895A1E21A2EAA1BBB1BFD010DC0BF
:10553000AA1FBB1FEE1FFF1FA217B307E407F50743
:1055400020F0A21BB30BE40BF50B661F771F881F1F
:10555000991F1A9469F760957095809590959B01B5
:10556000AC01BD01CF010895A29FB001B39FC0015E
:10557000A39F700D811D1124911DB29F700D811D7F
:105580001124911D08955058BB27AA270E94DB2A99
:105590000C94F7290E94E92938F00E94F02920F0A4
:1055A00039F49F3F19F426F40C94E6290EF4E095A3
:1055B000E7FB0C94E029E92F0E94082A58F3BA1758
:1055C000620773078407950720F079F4A6F50C9419
:1055D0002A2A0EF4E0950B2EBA2FA02D0B01B9014B
:1055E00090010C01CA01A0011124FF27591B99F059
:1055F000593F50F4503E68F11A16F040A22F232F65
:10560000342F4427585FF3CF469537952795A795B4
:10561000F0405395C9F77EF41F16BA0B620B730B5B
:10562000840BBAF09150A1F0FF0FBB1F661F771FCC
:10563000881FC2F70EC0BA0F621F731F841F48F481
:10564000879577956795B795F7959E3F08F0B0CF0A
:105650009395880F08F09927EE0F979587950895F1
:10566000DF93DD27B92FBF7740E85FE316161706F3
:1056700048075B0718F4D92F0E94332C9F938F9310
:105680007F936F930E94812CE8E6F0E00E94072C44
:105690000E94F7292F913F914F915F910E94862997
:1056A000DD2351F09058A2EA2AED3FE049EC5FE398
:1056B000D0785D270E94DB2ADF910C94F7290E94A5
:1056C000732B0C94F7290E94F02958F00E94E929C5
:1056D00040F029F45F3F29F00C94E02951110C941B
:1056E0002B2A0C94E6290E94082A68F39923B1F327
:1056F000552391F3951B550BBB27AA2762177307F8
:10570000840738F09F5F5F4F220F331F441FAA1F8B
:10571000A9F335D00E2E3AF0E0E832D09150504047
:10572000E695001CCAF72BD0FE2F29D0660F771FF5
:10573000881FBB1F261737074807AB07B0E809F0DB
:10574000BB0B802DBF01FF2793585F4F3AF09E3F60
:10575000510578F00C94E0290C942B2A5F3FE4F378
:10576000983ED4F3869577956795B795F7959F5FA3
:10577000C9F7880F911D9695879597F90895E1E0EF
:10578000660F771F881FBB1F621773078407BA074E
:1057900020F0621B730B840BBA0BEE1F88F7E095A9
:1057A00008950E94D82B6894B1110C942B2A089567
:1057B0000E94102A88F09F5798F0B92F9927B75167
:1057C000B0F0E1F0660F771F881F991F1AF0BA95A5
:1057D000C9F714C0B13091F00E942A2AB1E00895AF
:1057E0000C942A2A672F782F8827B85F39F0B93FA1
:1057F000CCF3869577956795B395D9F73EF4909558
:105800008095709561957F4F8F4F9F4F0895DF93DF
:10581000CF931F930F93FF92EF92DF927B018C0146
:10582000689406C0DA2EEF010E948629FE01E894F2
:10583000A5912591359145915591A6F3EF010E94CF
:10584000DB2AFE019701A801DA9469F7DF90EF9057
:10585000FF900F911F91CF91DF9108950E944F29E2
:1058600008F48FEF08959B01AC0160E070E080E8E0
:105870009FE30C945F2B19F416F40C94E6290C9416
:10588000852C0E94102AB8F39923C9F3B6F39F57C9
:10589000550B87FF0E94932C0024A0E640EA90015C
:1058A00080585695979528F4805C660F771F881F5F
:1058B00020F026173707480730F4621B730B840B60
:1058C000202931294A2BA6951794079420253125A4
:1058D0004A2758F7660F771F881F20F026173707CB
:1058E000480730F4620B730B840B200D311D411DF2
:1058F000A09581F7B901842F9158880F96958795C7
:1059000008959B01AC010C9473299F3F31F0915095
:1059100020F4879577956795B795880F911D969593
:10592000879597F9089591505040660F771F881F0B
:10593000D2F70895DB018F939F930E94502ABF9165
:10594000AF91A29F800D911DA39F900DB29F900DCE
:1059500011240895AA1BBB1B51E107C0AA1FBB1F3E
:10596000A617B70710F0A61BB70B881F991F5A95EB
:10597000A9F780959095BC01CD01089597FB072E5E
:1059800016F4009407D077FD09D00E94AA2C07FCDA
:1059900005D03EF4909581959F4F0895709561953F
:1059A0007F4F0895EE0FFF1F0590F491E02D0994AD
:1059B0000E94B42AB7FF0895821B930B08950F939A
:1059C0001F93CF93DF938230910510F482E090E033
:1059D000E0918D03F0918E0330E020E0B0E0A0E094
:1059E000309799F42115310509F44AC0281B390B69
:1059F00024303105D8F58A819B816115710589F1C3
:105A0000FB0193838283FE0111C040815181028199
:105A1000138148175907E0F04817590799F4109770
:105A200061F012960C93129713961C933296CF0145
:105A3000DF91CF911F910F91089500938D031093E3
:105A40008E03F4CF2115310551F04217530738F07A
:105A5000A901DB019A01BD01DF01F801C1CFEF010E
:105A6000F9CF90938E0380938D03CDCFFE01E20F8B
:105A7000F31F819391932250310939832883D7CF23
:105A800020918B0330918C03232B41F42091020150
:105A90003091030130938C0320938B0320910001FC
:105AA000309101012115310541F42DB73EB74091E8
:105AB000040150910501241B350BE0918B03F091FB
:105AC0008C03E217F307A0F42E1B3F0B28173907AE
:105AD00078F0AC014E5F5F4F2417350748F04E0F4A
